S01D0000325F53657269616C5F636F6D756E69636174696F6E2E73726563AE
S1130000BBC00000D4C00000D2C00000D0C00000BB
S1130010CEC00000CCC00000CAC00000C8C00000B0
S1130020C6C00000C4C00000C2C00000C0C00000C0
S1130030BEC00000BCC00000BAC00000B8C00000D0
S1130040B6C00000B4C00000B2C00000B0C00000E0
S1130050AEC00000ACC00000AAC00000A8C00000F0
S1130060A6C00000A4C00000A2C00000A0C0000000
S11300709EC000009CC000009AC0000098C0000010
S113008096C0000094C0000092C0000090C0000020
S11300908EC000008CC000008AC0000088C0000030
S11300A086C0000084C0000082C0000080C0000040
S11300B07EC000007CC000007AC0000078C0000050
S11300C076C0000074C0000072C0000070C0000060
S11300D06EC000006CC000006AC0000068C0000070
S11300E066C0000064C0000062C0000060C0000080
S11300F05EC000005CC000005AC0000058C0000090
S113010056C0000054C0000052C0000050C000009F
S11301104EC000004CC000004AC0000048C00000AF
S113012046C0000044C0000042C0000040C00000BF
S11301303EC000003CC000003AC0000038C00000CF
S113014036C0000034C0000032C0000030C00000DF
S11301502EC000002CC000002AC0000028C00000EF
S113016026C0000024C0000022C0000020C00000FF
S11301701EC000001CC0000011241FBECFEFCDBF65
S1130180DFE2DEBF10E2A0E0B0E2E8E6F7E002C0A2
S113019005900D92A635B107D9F720E2A6E5B0E2A5
S11301A001C01D92A835B207E1F76AD2DBC228CF9D
S11301B0E0E6F6E088E08583818384E086838283B9
S11301C0E0EEF7E081E08183858308958FEF8093EB
S11301D07000809371008093720080937300809309
S11301E0740080937500809376008091510084FDA3
S11301F01CC08091510081FD0BC09FB7F894E0E5CD
S1130200F0E08081826080839FBF818181FFFDCF88
S11302109FB7F894E0E5F0E083E88583808180610E
S113022080839FBF818184FFFDCF64E080E490E000
S113023015D09FB7F894E0E5F0E080818E7F80834D
S11302409FBF08959FB7F894E82FF0E0E059FF4F5F
S113025060958081682360839FBF08951BBEFC0165
S113026028ED24BF60830895FC01918195FFFDCFA3
S1130270608380E090E00895FC0191819923ECF77C
S1130280808108952F923F924F925F926F927F9256
S11302908F929F92AF92BF92CF92DF92EF92FF9292
S11302A00F931F93CF931C012A013B01480159016D
S11302B0D901C801689412F8B695A79597958795C2
S11302C01694D1F7B901A801032E36E17695679506
S11302D0579547953A95D1F7302DF101248122FDA8
S11302E008C0B695A7959795879576956795579580
S11302F0479584159505A605B70508F4AAC04416C4
S113030055066606770608F4A6C0F101848182FDCD
S113031004C0440C551C661C771CC501B401A30120
S11303209201FED12F3F31054105510508F495C0D6
S1130330C12CD12C7601CA94C9EF05C02C153D05FA
S11303404E055F0568F0CC0CDD1CEE1CFF1CCD3F98
S113035014F46894C0F8CF5FC73081F78C2F54C071
S11303608C2FCC230CF050C0D301C201880F991FED
S1130370AA1FBB1F880F991FAA1FBB1F880F991F95
S1130380AA1FBB1F85017401E81AF90A0A0B1B0B8B
S1130390D801C701CE3FECF42DEF3FEF2C1B310900
S11303A0C7FD339504C0880F991FAA1FBB1F2A9548
S11303B0D2F773016201F694E794D794C794BC0111
S11303C0CD016C0D7D1D8E1D9F1DA3019201A8D131
S11303D036C023E02C0F8301720104C0EE0CFF1C15
S11303E0001F111F2A95D2F7A80197016701780110
S11303F0F694E794D794C794BC01CD016C0D7D1D90
S11304008E1D9F1D8DD11BC08D5FA301920104C061
S1130410220F331F441F551F8A95D2F7DA01C901F1
S1130420B695A79597958795BC01CD01680D791D63
S11304308A1D9B1D75D12150310941095109832F12
S11304408F70C295C07FC82BF101C783268381E0DA
S11304501CC080E01AC080E018C0D301C201880F1C
S1130460991FAA1FBB1F880F991FAA1FBB1F880FA4
S1130470991FAA1FBB1F85017401E81AF90A0A0B08
S11304801B0BD801C701C9EF87CFCF911F910F91E3
S1130490FF90EF90DF90CF90BF90AF909F908F90A0
S11304A07F906F905F904F903F902F9008950F939F
S11304B01F93CF93DF93EC018B01009709F4BEC027
S11304C0803C910521F460E180E0BCDEB7C0C11539
S11304D084E0D80721F464E080E0B4DEAFC0C03823
S11304E0E1E0DE0721F462E080E0ACDEA7C0C115E4
S11304F0F1E0DF0721F461E080E0A4DE9FC0C038B2
S113050083E0D80721F461E081E09CDE97C0C11547
S1130510E2E0DE0721F462E081E094DE8FC0C032C5
S1130520F3E0DF0721F464E082E08CDE87C0C115CC
S113053088E0D80721F461E083E084DE7FC0C11540
S1130540E9E0DE0721F461E084E07CDE77C0C115D8
S1130550FAE0DF0721F461E085E074DE6FC0C034A7
S113056088E0D80721F462E083E06CDE67C0C03421
S1130570E9E0DE0721F462E084E064DE5FC0C039B4
S1130580F8E0DF0721F464E083E05CDE57C0C039A3
S113059089E0D80721F464E084E054DE4FC0C03918
S11305A0EAE0DE0721F464E085E04CDE47C0C03CAD
S11305B0F8E0DF0721F468E083E044DE3FC0C03C9C
S11305C089E0D80721F468E084E03CDE37C0C03A13
S11305D0E8E0DE0721F460E183E034DE2FC0C03AB6
S11305E0F9E0DF0721F460E184E02CDE27C0C03AA3
S11305F08AE0D80721F460E185E024DE1FC0C03B17
S1130600E8E0DE0721F460E283E01CDE17C0C03BB3
S1130610F9E0DF0721F460E284E014DE0FC0C038A3
S113062084E0D80721F460E483E00CDE07C0C03A1C
S1130630E4E0DE0719F460E485E004DE8D818F7365
S11306408D83F80194818581892B9681911198E09D
S1130650892B8D83F801408151816281738100E08F
S113066016E32EE631E0CE010DDE9C8198609C837A
S11306709C8190619C83DF91CF911F910F9108958C
S1130680A5DD96DD60E184E0DDDD60E070E280EA16
S113069099E00DDF10925720E0E0C0EAD9E010E4C1
S11306A0F0E0EE5DFF4D6081CE01DEDD898186FFE5
S11306B0FDCF1983E0915720EF5FE0935720E33398
S11306C078F3C0EED7E011E080EA99E0D5DD8093BD
S11306D056206091562080EA99E0C6DD809156202C
S11306E0813611F41F83F0CF809156208D3061F74D
S11306F01092572080910720882331F3E0E0F0E046
S1130700E85FFF4D608180EA99E0AEDDE09157201B
S1130710EF5FE093572080910720E81780F3D4CF50
S1130720A1E21A2EAA1BBB1BFD010DC0AA1FBB1FF1
S1130730EE1FFF1FA217B307E407F50720F0A21B63
S1130740B30BE40BF50B661F771F881F991F1A94D0
S113075069F760957095809590959B01AC01BD01FA
S10B0760CF010895F894FFCFC6
S113076880250000030000190A0D48656C6C6F2091
S1130778415652204A6F6E617468616E2021203A96
S11307882000F2F5AB97968CDF9691DF9E91DF9A65
S1130798919C909B9A9BDF929A8C8C9E989ADF8C62
S11307A89A918BDF998D9092DFA7B2BAB8BEDFAA6F
S10907B8ACBEADABDE0097
S9030000FC
