S00B00007370692E73726563CD
S1130000FDC0000016C1000014C1000012C10000B0
S113001010C100000EC100000CC100000AC10000A4
S113002008C1000006C1000004C1000002C10000B4
S113003000C10000FEC00000FCC00000FAC00000C7
S1130040F8C00000F6C00000F4C00000F2C00000D8
S1130050F0C00000EEC00000ECC00000EAC00000E8
S1130060E8C00000E6C00000E4C00000E2C00000F8
S1130070E0C00000DEC00000DCC00000DAC0000008
S1130080D8C00000D6C00000D4C00000D2C0000018
S1130090D0C00000CEC00000CCC00000CAC0000028
S11300A0C8C00000C6C00000C4C0000003C20000F5
S11300B056C20000BEC00000BCC00000BAC00000B0
S11300C0B8C00000B6C00000B4C00000B2C0000058
S11300D0B0C00000AEC00000ACC00000AAC0000068
S11300E0A8C00000A6C00000A4C00000A2C0000078
S11300F0A0C000009EC000009CC000009AC0000088
S113010098C0000096C0000094C0000092C0000097
S113011090C000008EC000008CC000008AC00000A7
S113012088C0000086C0000084C0000082C00000B7
S113013080C000007EC000007CC000007AC00000C7
S113014078C0000076C0000074C0000072C00000D7
S113015070C000006EC000006CC000006AC00000E7
S113016068C0000066C0000064C0000062C00000F7
S113017060C000005EC000005CC000005AC0000007
S113018058C0000056C0000054C0000052C0000017
S113019050C000004EC000004CC000004AC0000027
S11301A048C0000046C0000044C0000042C0000037
S11301B040C000003EC000003CC000003AC0000047
S11301C038C0000036C0000034C0000032C0000057
S11301D030C000002EC000002CC000002AC0000067
S11301E028C0000026C0000024C0000022C0000077
S11301F020C000001EC000001CC0000011241FBE4F
S1130200CFEFCDBFDFE2DEBF10E2A0E0B0E2E4EA70
S1130210F6E002C005900D92A430B107D9F720E2B0
S1130220A4E0B0E201C01D92A630B207E1F705D206
S113023037C2E6CECF93DF93EC01C03C28E0D2076F
S113024021F468E083E0C6D006C0803C994019F4EC
S113025068E084E0BFD0888180618883DF91CF919A
S11302600895EF92FF920F931F93CF937C01C42FB5
S1130270B901A80100E01CE62CED32E0B7D08823D8
S113028044F0F7019081CC0FCC0FCC70937FC92B35
S1130290C083CF911F910F91FF90EF900895FC01BF
S11302A0DB01460F571F05C08D91838392819923EB
S11302B0ECF7A417B507C1F780E00895FC01DB0152
S11302C04115510561F0460F571F2FEF238392818B
S11302D09923ECF783818D93A417B507B9F780E0D0
S11302E00895FB018081E82FE695E695E69540E2C6
S11302F0E49FF0011124FA5F877021E030E0A90146
S113030002C0440F551F8A95E2F746830895FB0106
S11303108081E82FE695E695E69540E2E49FF001BA
S11303201124FA5F877021E030E0A90102C0440F74
S1130330551F8A95E2F745830895CF93DF93FC0117
S1130340709620E030E0C62FD0E0DE01022E02C01D
S1130350B595A7950A94E2F7A0FD50832F5F3F4F10
S113036031962830310589F740FF0AC041FF03C0A8
S1130370FC01658302C0FC016683FC01618302C049
S1130380FC016283DF91CF9108958FEF8093700019
S11303908093710080937200809373008093740043
S11303A080937500809376008091510084FD0DC088
S11303B09FB7F894E0E5F0E088E18583808180616F
S11303C080839FBF818184FFFDCF64E080E490E05F
S11303D054C008959FB7F894E82FF0E0E059FF4F18
S11303E060958081682360839FBF0895CF92DF92D8
S11303F0EF92FF920F931F93CF93DF93EC016A0167
S11304007B01DB01CA010197A109B109BC01CD013E
S1130410600F711F821F931FA70196011FD12138FE
S1130420310541055105F8F4213460F4213260F4BA
S1130430213160F4293060F4253060F4233060F415
S113044080E80BC083E009C082E007C082E805C0F1
S113045081E003C081E801C080E098819C77982BFB
S1130460988381E001C08FEFDF91CF911F910F91AD
S1130470FF90EF90DF90CF9008951BBEFC0128ED14
S113048024BF608308950895E0E8F6E0108280892F
S11304908A61808B81898A61818BA0E0B6E083E0E8
S11304A08C9314961C9282E0838781E0828785E096
S11304B0818708951F920F920FB60F9211242F93E4
S11304C03F934F935F936F937F938F939F93AF93D8
S11304D0BF93EF93FF9381E08093070663E070E29C
S11304E080EC98E0FEDE41E050E061E070E280ECF8
S11304F098E0D5DE41E050E065E070E280EC98E001
S1130500DDDE63E070E280EC98E001DF62E070E23F
S113051080EC99E0E6DE41E050E060E070E280ECDF
S113052099E0BDDE41E050E064E070E280EC99E0E7
S1130530C5DE62E070E280EC99E0E9DEFF91EF91C4
S1130540BF91AF919F918F917F916F915F914F91E7
S11305503F912F910F900FBE0F901F9018951F92EF
S11305600F920FB60F9211240F900FBE0F901F9091
S11305701895CF92DF92EF92FF920F931F9340E072
S113058058E160E180E496E0D8DE43E050E060E2C8
S113059080E496E0D2DE40E050E060E480E496E05F
S11305A0CCDE43E050E060E880E496E0C6DE80EC18
S11305B098E040DEC12CD12C760100E412E42FE057
S11305C030E040E063E070E280EC98E04ADEE0EC8A
S11305D0F8E080818064808340E058E160E180E657
S11305E096E0ABDE43E050E060E280E696E0A5DE14
S11305F040E050E060E480E696E09FDE43E050E0B7
S113060060E880E696E099DE80EC99E013DE00E491
S113061012E42FE030E040E062E070E280EC99E028
S113062020DEE0ECF9E08081806480831F910F91EB
S1130630FF90EF90DF90CF900895A7DE24DF24DFB2
S113064098DF87E08093A200789480910520E0E011
S1130650F6E092E08037F1F79583FCCFA1E21A2E01
S1130660AA1BBB1BFD010DC0AA1FBB1FEE1FFF1F52
S1130670A217B307E407F50720F0A21BB30BE40BA2
S1130680F50B661F771F881F991F1A9469F76095E9
S11306907095809590959B01AC01BD01CF010895A3
S10706A0F894FFCFF8
S10706A470611C144D
S9030000FC
