S01F0000325F736967616E6C20616E2064656174682074696D65732E737265639F
S1130000BBC00000C9C00000C7C00000C5C00000DC
S1130010C3C00000C1C00000BFC00000BDC00000DC
S1130020BBC00000B9C00000B7C00000B5C00000EC
S1130030B3C00000B1C00000E0C0000007C1000070
S11300402EC1000055C100007CC10000A3C1000006
S1130050CAC10000F1C1000018C200003FC2000084
S11300609BC0000099C0000097C0000095C000002C
S113007093C0000091C000008FC000008DC000003C
S11300808BC0000089C0000087C0000085C000004C
S113009083C0000081C000007FC000007DC000005C
S11300A07BC0000079C0000077C0000075C000006C
S11300B073C0000071C000006FC00000D2C3000014
S11300C0F9C3000020C4000047C400006EC400004F
S11300D095C4000061C000005FC000005DC0000066
S11300E05BC0000059C0000057C0000055C00000AC
S11300F053C0000051C000004FC000004DC00000BC
S11301004BC0000049C0000047C0000045C00000CB
S113011043C0000041C000003FC000003DC00000DB
S11301203BC0000039C0000037C0000035C00000EB
S113013033C00000FCC1000023C200004AC200001A
S113014071C2000098C20000BFC20000E6C20000F5
S11301500DC3000034C300005BC300001DC00000D9
S11301601BC0000019C0000017C0000015C000002B
S113017013C0000011C0000011241FBECFEFCDBF7B
S1130180DFE2DEBF20E2A0E0B0E201C01D92A833AE
S1130190B207E1F734D57EC533CF8FEF809370007B
S11301A08093710080937200809373008093740035
S11301B08093750080937600E0E5F0E0818184FD12
S11301C00BC08FB7F89490E19583908190619083F0
S11301D08FBF818184FFFDCF64E080E490E0CFC4D1
S11301E008959FB7F894E82FF0E0E059FF4F609529
S11301F08081682360839FBF08951F920F920FB67A
S11302000F9211242F933F934F935F936F937F9398
S11302108F939F93AF93BF93EF93FF93E09132201B
S1130220F0913320309709F00995FF91EF91BF9138
S1130230AF919F918F917F916F915F914F913F917A
S11302402F910F900FBE0F901F9018951F920F9231
S11302500FB60F9211242F933F934F935F936F9395
S11302607F938F939F93AF93BF93EF93FF93E0910B
S11302703020F0913120309709F00995FF91EF91EA
S1130280BF91AF919F918F917F916F915F914F91AA
S11302903F912F910F900FBE0F901F9018951F92B2
S11302A00F920FB60F9211242F933F934F935F93A6
S11302B06F937F938F939F93AF93BF93EF93FF932A
S11302C0E0912E20F0912F20309709F00995FF91AD
S11302D0EF91BF91AF919F918F917F916F915F91BA
S11302E04F913F912F910F900FBE0F901F90189533
S11302F01F920F920FB60F9211242F933F934F9397
S11303005F936F937F938F939F93AF93BF93EF9379
S1130310FF93E0912C20F0912D20309709F009955E
S1130320FF91EF91BF91AF919F918F917F916F91C9
S11303305F914F913F912F910F900FBE0F901F909F
S113034018951F920F920FB60F9211242F933F937B
S11303504F935F936F937F938F939F93AF93BF93C9
S1130360EF93FF93E0912A20F0912B20309709F02E
S11303700995FF91EF91BF91AF919F918F917F91DB
S11303806F915F914F913F912F910F900FBE0F90FE
S11303901F9018951F920F920FB60F9211242F934E
S11303A03F934F935F936F937F938F939F93AF93F9
S11303B0BF93EF93FF93E0912820F0912920309789
S11303C009F00995FF91EF91BF91AF919F918F91A2
S11303D07F916F915F914F913F912F910F900FBE3D
S11303E00F901F9018951F920F920FB60F92112421
S11303F02F933F934F935F936F937F938F939F9329
S1130400AF93BF93EF93FF93E0912620F0912720C1
S1130410309709F00995FF91EF91BF91AF919F91AA
S11304208F917F916F915F914F913F912F910F9099
S11304300FBE0F901F9018951F920F920FB60F9238
S113044011242F933F934F935F936F937F938F93D5
S11304509F93AF93BF93EF93FF93E0912420F09188
S11304602520309709F00995FF91EF91BF91AF9145
S11304709F918F917F916F915F914F913F912F91B8
S11304800F900FBE0F901F9018951F920F920FB6EA
S11304900F9211242F933F934F935F936F937F9306
S11304A08F939F93AF93BF93EF93FF93E091222099
S11304B0F0912320309709F00995FF91EF91BF91B6
S11304C0AF919F918F917F916F915F914F913F91E8
S11304D02F910F900FBE0F901F9018951F920F929F
S11304E00FB60F9211242F933F934F935F936F9303
S11304F07F938F939F93AF93BF93EF93FF93E09179
S11305002020F0912120309709F00995FF91EF9177
S1130510BF91AF919F918F917F916F915F914F9117
S11305203F912F910F900FBE0F901F9018951F921F
S11305300F920FB60F9211242F933F934F935F9313
S11305406F937F938F939F93AF93BF93EF93FF9397
S1130550E0911E20F0911F20309709F00995FF913A
S1130560EF91BF91AF919F918F917F916F915F9127
S11305704F913F912F910F900FBE0F901F901895A0
S11305801F920F920FB60F9211242F933F934F9304
S11305905F936F937F938F939F93AF93BF93EF93E7
S11305A0FF93E0911C20F0911D20309709F00995EC
S11305B0FF91EF91BF91AF919F918F917F916F9137
S11305C05F914F913F912F910F900FBE0F901F900D
S11305D018951F920F920FB60F9211242F933F93E9
S11305E04F935F936F937F938F939F93AF93BF9337
S11305F0EF93FF93E0911A20F0911B20309709F0BC
S11306000995FF91EF91BF91AF919F918F917F9148
S11306106F915F914F913F912F910F900FBE0F906B
S11306201F9018951F920F920FB60F9211242F93BB
S11306303F934F935F936F937F938F939F93AF9366
S1130640BF93EF93FF93E0911820F0911920309716
S113065009F00995FF91EF91BF91AF919F918F910F
S11306607F916F915F914F913F912F910F900FBEAA
S11306700F901F9018951F920F920FB60F9211248E
S11306802F933F934F935F936F937F938F939F9396
S1130690AF93BF93EF93FF93E0911620F09117204F
S11306A0309709F00995FF91EF91BF91AF919F9118
S11306B08F917F916F915F914F913F912F910F9007
S11306C00FBE0F901F9018951F920F920FB60F92A6
S11306D011242F933F934F935F936F937F938F9343
S11306E09F93AF93BF93EF93FF93E0911420F09106
S11306F01520309709F00995FF91EF91BF91AF91C3
S11307009F918F917F916F915F914F913F912F9125
S11307100F900FBE0F901F9018951F920F920FB657
S11307200F9211242F933F934F935F936F937F9373
S11307308F939F93AF93BF93EF93FF93E091122016
S1130740F0911320309709F00995FF91EF91BF9133
S1130750AF919F918F917F916F915F914F913F9155
S11307602F910F900FBE0F901F9018951F920F920C
S11307700FB60F9211242F933F934F935F936F9370
S11307807F938F939F93AF93BF93EF93FF93E091E6
S11307901020F0911120309709F00995FF91EF9105
S11307A0BF91AF919F918F917F916F915F914F9185
S11307B03F912F910F900FBE0F901F9018951F928D
S11307C00F920FB60F9211242F933F934F935F9381
S11307D06F937F938F939F93AF93BF93EF93FF9305
S11307E0E0910E20F0910F20309709F00995FF91C8
S11307F0EF91BF91AF919F918F917F916F915F9195
S11308004F913F912F910F900FBE0F901F9018950D
S11308101F920F920FB60F9211242F933F934F9371
S11308205F936F937F938F939F93AF93BF93EF9354
S1130830FF93E0910C20F0910D20309709F0099579
S1130840FF91EF91BF91AF919F918F917F916F91A4
S11308505F914F913F912F910F900FBE0F901F907A
S113086018951F920F920FB60F9211242F933F9356
S11308704F935F936F937F938F939F93AF93BF93A4
S1130880EF93FF93E0910A20F0910B20309709F049
S11308900995FF91EF91BF91AF919F918F917F91B6
S11308A06F915F914F913F912F910F900FBE0F90D9
S11308B01F9018951F920F920FB60F9211242F9329
S11308C03F934F935F936F937F938F939F93AF93D4
S11308D0BF93EF93FF93E0910820F09109203097A4
S11308E009F00995FF91EF91BF91AF919F918F917D
S11308F07F916F915F914F913F912F910F900FBE18
S11309000F901F9018951F920F920FB60F921124FB
S11309102F933F934F935F936F937F938F939F9303
S1130920AF93BF93EF93FF93E0910620F0910720DC
S1130930309709F00995FF91EF91BF91AF919F9185
S11309408F917F916F915F914F913F912F910F9074
S11309500FBE0F901F9018951F920F920FB60F9213
S113096011242F933F934F935F936F937F938F93B0
S11309709F93AF93BF93EF93FF93E0910420F09183
S11309800520309709F00995FF91EF91BF91AF9140
S11309909F918F917F916F915F914F913F912F9193
S11309A00F900FBE0F901F9018951F920F920FB6C5
S11309B00F9211242F933F934F935F936F937F93E1
S11309C08F939F93AF93BF93EF93FF93E091022094
S11309D0F0910320309709F00995FF91EF91BF91B1
S11309E0AF919F918F917F916F915F914F913F91C3
S11309F02F910F900FBE0F901F9018951F920F927A
S1130A000FB60F9211242F933F934F935F936F93DD
S1130A107F938F939F93AF93BF93EF93FF93E09153
S1130A200020F0910120309709F00995FF91EF9192
S1130A30BF91AF919F918F917F916F915F914F91F2
S1130A403F912F910F900FBE0F901F901895CF9349
S1130A50CFB7F894282F392F211588E0380739F4B7
S1130A6061E083E0BEDB64E083E0BBDB2DC02034C7
S1130A7088E0380739F462E083E0B3DB64E083E0C4
S1130A80B0DB22C0211589E0380739F461E084E045
S1130A90A8DB64E084E0A5DB17C0203489E03807D4
S1130AA039F462E084E09DDB64E084E09ADB0CC00E
S1130AB021153A4039F461E085E093DB64E085E098
S1130AC090DB02C0CFBF01C0CFBFCF910895811585
S1130AD028E0920729F460932E2070932F20089524
S1130AE0803428E0920729F4609322207093232015
S1130AF00895811529E0920729F460931A207093D0
S1130B001B200895803429E0920729F460930E2075
S1130B1070930F20089581159A4021F46093062064
S1130B20709307200895811528E0920729F46093B3
S1130B302C2070932D200895803428E0920729F406
S1130B4060932020709321200895811529E0920755
S1130B5029F460931820709319200895803429E0B3
S1130B60920729F460930C2070930D200895811549
S1130B709A4021F4609304207093052008951BBECD
S1130B80FC0128ED24BF608308958FEF8093400615
S1130B900895809136209091372001968E3F9105DB
S1130BA028F4809336209093372004C01092362086
S1130BB0109237208091362090913720E0E0F8E0C1
S1130BC080AF91AF089580913420909135200197A2
S1130BD08230910528F0809334209093352006C00C
S1130BE08FEF90E0809334209093352080913420CF
S1130BF090913520E0E0F8E082AF93AF089587E06C
S1130C00E0EAF0E08283C1DFC8DA80E098E01FDF29
S1130C10C0E0D8E08F818C7F8F838F8181608F8348
S1130C208F81837F8F838F8184608F838981887F85
S1130C30898369EC75E080E098E049DF63EE75E054
S1130C4080E098E070DF80E091E08EA39FA380E8CD
S1130C5090E088A799A78AA79BA789818061898347
S1130C608981806189838981887F85608983E0E8BF
S1130C70F8E08081816080838081826080838AE261
S1130C808187808783E084878881807F87608883E9
S10B0C907894FFCFF894FFCF24
S9030000FC
