S00B000050574D2E7372656325
S1130000BBC00000D4C00000D2C00000D0C00000BB
S1130010CEC00000CCC00000CAC00000C8C00000B0
S1130020C6C00000C4C00000C2C00000C0C00000C0
S1130030BEC00000BCC00000EBC2000012C3000040
S113004039C3000060C3000087C30000AEC30000D2
S1130050D5C30000FCC3000023C400004AC4000050
S1130060A6C00000A4C00000A2C00000A0C0000000
S11300709EC000009CC000009AC0000098C0000010
S113008096C0000094C0000092C0000090C0000020
S11300908EC000008CC000008AC0000088C0000030
S11300A086C0000084C0000082C0000080C0000040
S11300B07EC000007CC000007AC00000DDC50000E6
S11300C004C600002BC6000052C6000079C600001A
S11300D0A0C600006CC000006AC0000068C0000038
S11300E066C0000064C0000062C0000060C0000080
S11300F05EC000005CC000005AC0000058C0000090
S113010056C0000054C0000052C0000050C000009F
S11301104EC000004CC000004AC0000048C00000AF
S113012046C0000044C0000042C0000040C00000BF
S11301303EC0000007C400002EC4000055C40000E7
S11301407CC40000A3C40000CAC40000F1C40000C1
S113015018C500003FC5000066C5000028C00000A7
S1130160D7C6000024C0000022C0000020C0000048
S11301701EC000001CC0000011241FBECFEFCDBF65
S1130180DFE2DEBF10E2A0E0B0E2EEE5F0E102C0A3
S113019005900D92A830B107D9F720E2A8E0B0E2AB
S11301A001C01D92AD33B207E1F7EED656C728CF92
S11301B0FC01818185FFFDCF608380E090E008959C
S11301C0FC0181818823ECF7808108954F925F922E
S11301D06F927F928F929F92AF92BF92CF92DF9253
S11301E0EF92FF920F931F93CF93DF93EC014A0199
S11301F05B0128013901D901C801689412F8B69548
S1130200A795979587951694D1F7B901A801032E60
S113021036E176956795579547953A95D1F7302D00
S11302202C8122FD08C0B695A7959795879576955C
S113023067955795479588159905AA05BB0508F450
S1130240A2C084169506A606B70608F49EC08C8143
S113025082FD04C0880C991CAA1CBB1CC301B201FA
S1130260A5019401D8D62F3F31054105510508F465
S11302708EC0C12CD12C7601CA9419EF05C02C155F
S11302803D054E055F0568F0CC0CDD1CEE1CFF1C23
S11302901D3F14F46894C0F81F5F173081F7212FB5
S11302A04EC0212F11230CF04AC0D501C401880F80
S11302B0991FAA1FBB1F880F991FAA1FBB1F880F56
S11302C0991FAA1FBB1F481A590A6A0A7B0A1E3FB4
S11302D0ECF46DEF7FEF611B710917FD739504C09A
S11302E0440C551C661C771C6A95D2F7D501C401D1
S11302F0B695A79597958795BC01CD01640D751D9D
S1130300861D971DA501940186D634C023E0210FD4
S1130310D501C40104C0880F991FAA1FBB1F2A95C9
S1130320D2F79C01AD01B695A79597958795BC0129
S1130330CD01640D751D861D971D6DD61BC02D5FE7
S1130340D501C40104C0880F991FAA1FBB1F2A9599
S1130350D2F79C01AD01B695A79597958795BC01F9
S1130360CD01640D751D861D971D55D6215031098B
S113037041095109832F8F701295107F182B1F8309
S11303802E8381E018C080E016C080E014C0D5013F
S1130390C401880F991FAA1FBB1F880F991FAA1F8A
S11303A0BB1F880F991FAA1FBB1F481A590A6A0A44
S11303B07B0A19EF8ECFDF91CF911F910F91FF90A0
S11303C0EF90DF90CF90BF90AF909F908F907F90F1
S11303D06F905F904F9008950F931F93CF93DF9387
S11303E0EC018B01009709F4BEC0803C910521F417
S11303F060E180E001D1B7C0C11584E0D80721F4E1
S113040064E080E0F9D0AFC0C038E1E0DE0721F459
S113041062E080E0F1D0A7C0C115F1E0DF0721F46C
S113042061E080E0E9D09FC0C03883E0D80721F4C0
S113043061E081E0E1D097C0C115E2E0DE0721F47C
S113044062E081E0D9D08FC0C032F3E0DF0721F44D
S113045064E082E0D1D087C0C11588E0D80721F4D8
S113046061E083E0C9D07FC0C115E9E0DE0721F473
S113047061E084E0C1D077C0C115FAE0DF0721F460
S113048061E085E0B9D06FC0C03488E0D80721F4BA
S113049062E083E0B1D067C0C034E9E0DE0721F454
S11304A062E084E0A9D05FC0C039F8E0DF0721F43E
S11304B064E083E0A1D057C0C03989E0D80721F4B3
S11304C064E084E099D04FC0C039EAE0DE0721F44B
S11304D064E085E091D047C0C03CF8E0DF0721F438
S11304E068E083E089D03FC0C03C89E0D80721F4AC
S11304F068E084E081D037C0C03AE8E0DE0721F448
S113050060E183E079D02FC0C03AF9E0DF0721F43D
S113051060E184E071D027C0C03A8AE0D80721F4B2
S113052060E185E069D01FC0C03BE8E0DE0721F44C
S113053060E283E061D017C0C03BF9E0DF0721F43B
S113054060E284E059D00FC0C03884E0D80721F4B9
S113055060E483E051D007C0C03AE4E0DE0719F458
S113056060E485E049D08D818F738D83F801948197
S11305708581892B9681992311F098E001C090E040
S1130580892B8D83F801408151816281738100E060
S113059018E428EE31E0CE0119DE9C8198609C833A
S11305A09C8190619C83DF91CF911F910F9108955D
S11305B08FEF80937000809371008093720080931A
S11305C07300809374008093750080937600E0E557
S11305D0F0E0818184FD0BC08FB7F89490E195839E
S11305E09081906190838FBF818184FFFDCF64E00F
S11305F080E490E077C408959FB7F894E82FF0E082
S1130600E059FF4F60958081682360839FBF089500
S11306101F920F920FB60F9211242F933F934F9373
S11306205F936F937F938F939F93AF93BF93EF9356
S1130630FF93E0913A20F0913B20309709F009951F
S1130640FF91EF91BF91AF919F918F917F916F91A6
S11306505F914F913F912F910F900FBE0F901F907C
S113066018951F920F920FB60F9211242F933F9358
S11306704F935F936F937F938F939F93AF93BF93A6
S1130680EF93FF93E0913820F0913920309709F0EF
S11306900995FF91EF91BF91AF919F918F917F91B8
S11306A06F915F914F913F912F910F900FBE0F90DB
S11306B01F9018951F920F920FB60F9211242F932B
S11306C03F934F935F936F937F938F939F93AF93D6
S11306D0BF93EF93FF93E0913620F091372030974A
S11306E009F00995FF91EF91BF91AF919F918F917F
S11306F07F916F915F914F913F912F910F900FBE1A
S11307000F901F9018951F920F920FB60F921124FD
S11307102F933F934F935F936F937F938F939F9305
S1130720AF93BF93EF93FF93E0913420F091352082
S1130730309709F00995FF91EF91BF91AF919F9187
S11307408F917F916F915F914F913F912F910F9076
S11307500FBE0F901F9018951F920F920FB60F9215
S113076011242F933F934F935F936F937F938F93B2
S11307709F93AF93BF93EF93FF93E0913220F09157
S11307803320309709F00995FF91EF91BF91AF9114
S11307909F918F917F916F915F914F913F912F9195
S11307A00F900FBE0F901F9018951F920F920FB6C7
S11307B00F9211242F933F934F935F936F937F93E3
S11307C08F939F93AF93BF93EF93FF93E091302068
S11307D0F0913120309709F00995FF91EF91BF9185
S11307E0AF919F918F917F916F915F914F913F91C5
S11307F02F910F900FBE0F901F9018951F920F927C
S11308000FB60F9211242F933F934F935F936F93DF
S11308107F938F939F93AF93BF93EF93FF93E09155
S11308202E20F0912F20309709F00995FF91EF9138
S1130830BF91AF919F918F917F916F915F914F91F4
S11308403F912F910F900FBE0F901F9018951F92FC
S11308500F920FB60F9211242F933F934F935F93F0
S11308606F937F938F939F93AF93BF93EF93FF9374
S1130870E0912C20F0912D20309709F00995FF91FB
S1130880EF91BF91AF919F918F917F916F915F9104
S11308904F913F912F910F900FBE0F901F9018957D
S11308A01F920F920FB60F9211242F933F934F93E1
S11308B05F936F937F938F939F93AF93BF93EF93C4
S11308C0FF93E0912A20F0912B20309709F00995AD
S11308D0FF91EF91BF91AF919F918F917F916F9114
S11308E05F914F913F912F910F900FBE0F901F90EA
S11308F018951F920F920FB60F9211242F933F93C6
S11309004F935F936F937F938F939F93AF93BF9313
S1130910EF93FF93E0912820F0912920309709F07C
S11309200995FF91EF91BF91AF919F918F917F9125
S11309306F915F914F913F912F910F900FBE0F9048
S11309401F9018951F920F920FB60F9211242F9398
S11309503F934F935F936F937F938F939F93AF9343
S1130960BF93EF93FF93E0912620F09127203097D7
S113097009F00995FF91EF91BF91AF919F918F91EC
S11309807F916F915F914F913F912F910F900FBE87
S11309900F901F9018951F920F920FB60F9211246B
S11309A02F933F934F935F936F937F938F939F9373
S11309B0AF93BF93EF93FF93E0912420F091252010
S11309C0309709F00995FF91EF91BF91AF919F91F5
S11309D08F917F916F915F914F913F912F910F90E4
S11309E00FBE0F901F9018951F920F920FB60F9283
S11309F011242F933F934F935F936F937F938F9320
S1130A009F93AF93BF93EF93FF93E0912220F091D4
S1130A102320309709F00995FF91EF91BF91AF9191
S1130A209F918F917F916F915F914F913F912F9102
S1130A300F900FBE0F901F9018951F920F920FB634
S1130A400F9211242F933F934F935F936F937F9350
S1130A508F939F93AF93BF93EF93FF93E0912020E5
S1130A60F0912120309709F00995FF91EF91BF9102
S1130A70AF919F918F917F916F915F914F913F9132
S1130A802F910F900FBE0F901F9018951F920F92E9
S1130A900FB60F9211242F933F934F935F936F934D
S1130AA07F938F939F93AF93BF93EF93FF93E091C3
S1130AB01E20F0911F20309709F00995FF91EF91C6
S1130AC0BF91AF919F918F917F916F915F914F9162
S1130AD03F912F910F900FBE0F901F9018951F926A
S1130AE00F920FB60F9211242F933F934F935F935E
S1130AF06F937F938F939F93AF93BF93EF93FF93E2
S1130B00E0911C20F0911D20309709F00995FF9188
S1130B10EF91BF91AF919F918F917F916F915F9171
S1130B204F913F912F910F900FBE0F901F901895EA
S1130B301F920F920FB60F9211242F933F934F934E
S1130B405F936F937F938F939F93AF93BF93EF9331
S1130B50FF93E0911A20F0911B20309709F009953A
S1130B60FF91EF91BF91AF919F918F917F916F9181
S1130B705F914F913F912F910F900FBE0F901F9057
S1130B8018951F920F920FB60F9211242F933F9333
S1130B904F935F936F937F938F939F93AF93BF9381
S1130BA0EF93FF93E0911820F0911920309709F00A
S1130BB00995FF91EF91BF91AF919F918F917F9193
S1130BC06F915F914F913F912F910F900FBE0F90B6
S1130BD01F9018951F920F920FB60F9211242F9306
S1130BE03F934F935F936F937F938F939F93AF93B1
S1130BF0BF93EF93FF93E0911620F0911720309765
S1130C0009F00995FF91EF91BF91AF919F918F9159
S1130C107F916F915F914F913F912F910F900FBEF4
S1130C200F901F9018951F920F920FB60F921124D8
S1130C302F933F934F935F936F937F938F939F93E0
S1130C40AF93BF93EF93FF93E0911420F09115209D
S1130C50309709F00995FF91EF91BF91AF919F9162
S1130C608F917F916F915F914F913F912F910F9051
S1130C700FBE0F901F9018951F920F920FB60F92F0
S1130C8011242F933F934F935F936F937F938F938D
S1130C909F93AF93BF93EF93FF93E0911220F09152
S1130CA01320309709F00995FF91EF91BF91AF910F
S1130CB09F918F917F916F915F914F913F912F9170
S1130CC00F900FBE0F901F9018951F920F920FB6A2
S1130CD00F9211242F933F934F935F936F937F93BE
S1130CE08F939F93AF93BF93EF93FF93E091102063
S1130CF0F0911120309709F00995FF91EF91BF9180
S1130D00AF919F918F917F916F915F914F913F919F
S1130D102F910F900FBE0F901F9018951F920F9256
S1130D200FB60F9211242F933F934F935F936F93BA
S1130D307F938F939F93AF93BF93EF93FF93E09130
S1130D400E20F0910F20309709F00995FF91EF9153
S1130D50BF91AF919F918F917F916F915F914F91CF
S1130D603F912F910F900FBE0F901F9018951F92D7
S1130D700F920FB60F9211242F933F934F935F93CB
S1130D806F937F938F939F93AF93BF93EF93FF934F
S1130D90E0910C20F0910D20309709F00995FF9116
S1130DA0EF91BF91AF919F918F917F916F915F91DF
S1130DB04F913F912F910F900FBE0F901F90189558
S1130DC01F920F920FB60F9211242F933F934F93BC
S1130DD05F936F937F938F939F93AF93BF93EF939F
S1130DE0FF93E0910A20F0910B20309709F00995C8
S1130DF0FF91EF91BF91AF919F918F917F916F91EF
S1130E005F914F913F912F910F900FBE0F901F90C4
S1130E1018951F920F920FB60F9211242F933F93A0
S1130E204F935F936F937F938F939F93AF93BF93EE
S1130E30EF93FF93E0910820F0910920309709F097
S1130E400995FF91EF91BF91AF919F918F917F9100
S1130E506F915F914F913F912F910F900FBE0F9023
S1130E601F901895CF93CFB7F894282F392F2115B9
S1130E7088E0380739F461E083E0BEDB64E083E0B6
S1130E80BBDB2DC0203488E0380739F462E083E00E
S1130E90B3DB64E083E0B0DB22C0211589E03807CE
S1130EA039F461E084E0A8DB64E084E0A5DB17C0EA
S1130EB0203489E0380739F462E084E09DDB64E0A3
S1130EC084E09ADB0CC021153A4039F461E085E0F6
S1130ED093DB64E085E090DB02C0CFBF01C0CFBFED
S1130EE0CF9108951BBEFC0128ED24BF60830895B3
S1130EF08FE08093400681E0E0EEF7E08183E0E656
S1130F00F6E088E08583818384E086838283089584
S1130F101F920F920FB60F9211242F933F934F936A
S1130F205F936F937F938F939F93AF93BF93EF934D
S1130F30FF9380EA99E044D980933C209EE3899F03
S1130F4090011124E0E0F8E020A731A7682F80EA9F
S1130F5099E02ED9E0EAF9E0818186FFFDCF80E4B3
S1130F60E0EAF9E08183FF91EF91BF91AF919F9106
S1130F708F917F916F915F914F913F912F910F903E
S1130F800FBE0F901F901895B3DF12DB80E098E03E
S1130F9069DFE0E0F8E08181887F836081838FE707
S1130FA09EE3A0E0BAE096968D939C93979788E988
S1130FB09AE380A791A780E197E282A793A780E4B0
S1130FC09FE184A795A788EC90E086A797A78181E5
S1130FD0806F81838081807F8160808387E0E0EA05
S1130FE0F0E08283789460E184E006DB60E070E204
S1130FF080EA99E0F1D9E0EAF9E083818F7C8061AD
S11310008383A0E4B6E0E0EEF7E018968C9118979D
S113101081708483FACFA1E21A2EAA1BBB1BFD01A7
S11310200DC0AA1FBB1FEE1FFF1FA217B307E407C3
S1131030F50720F0A21BB30BE40BF50B661F771F1B
S1131040881F991F1A9469F76095709580959095FB
S11110509B01AC01BD01CF010895F894FFCFC0
S10B105E8025000003000000DE
S9030000FC
