S0180000315F496E74657272757063696F6E65732E73726563A2
S1130000FDC0000016C1000014C1000012C10000B0
S113001010C100000EC100000CC100000AC10000A4
S113002008C1000006C1000004C1000002C10000B4
S113003000C10000FEC00000FDC0000024C100009B
S11300404BC1000072C1000099C10000C0C1000092
S1130050E7C100000EC2000035C200005CC200000F
S1130060E8C00000E6C00000E4C00000E2C00000F8
S1130070E0C00000DEC00000DCC00000DAC0000008
S1130080D8C00000D6C00000D4C00000D2C0000018
S1130090D0C00000CEC00000CCC00000CAC0000028
S11300A0C8C00000C6C00000C4C00000C2C0000038
S11300B0C0C00000BEC00000BCC00000EFC3000010
S11300C016C400003DC4000064C400008BC40000DA
S11300D0B2C40000AEC00000ACC00000AAC0000062
S11300E0A8C00000A6C00000A4C00000A2C0000078
S11300F0A0C000009EC000009CC000009AC0000088
S113010098C0000096C0000002C5000051C5000060
S113011090C000008EC000008CC000008AC00000A7
S113012088C0000086C0000084C0000082C00000B7
S113013080C0000019C2000040C2000067C2000075
S11301408EC20000B5C20000DCC2000003C3000080
S11301502AC3000051C3000078C300006AC0000035
S113016068C0000066C0000064C0000062C00000F7
S113017060C000005EC000005CC000005AC0000007
S113018058C0000056C0000054C0000052C0000017
S113019050C000004EC000004CC000004AC0000027
S11301A048C0000046C0000044C0000042C0000037
S11301B040C000003EC000003CC000003AC0000047
S11301C038C0000036C0000034C0000032C0000057
S11301D030C000002EC000002CC000002AC0000067
S11301E028C0000026C0000024C0000022C0000077
S11301F020C000001EC000001CC0000011241FBE4F
S1130200CFEFCDBFDFE2DEBF10E2A0E0B0E2E8E96D
S1130210FCE002C005900D92A632B107D9F720E2A6
S1130220A6E2B0E201C01D92A036B207E1F710D5F4
S113023031C5E6CE1F920F920FB60F9211242F9361
S11302403F934F935F936F937F938F939F93AF935A
S1130250BF93EF93FF93E0915820F091592030978A
S113026009F00995FF91EF91BF91AF919F918F9103
S11302707F916F915F914F913F912F910F900FBE9E
S11302800F901F9018951F920F920FB60F92112482
S11302902F933F934F935F936F937F938F939F938A
S11302A0AF93BF93EF93FF93E0915620F0915720C3
S11302B0309709F00995FF91EF91BF91AF919F910C
S11302C08F917F916F915F914F913F912F910F90FB
S11302D00FBE0F901F9018951F920F920FB60F929A
S11302E011242F933F934F935F936F937F938F9337
S11302F09F93AF93BF93EF93FF93E0915420F091BA
S11303005520309709F00995FF91EF91BF91AF9176
S11303109F918F917F916F915F914F913F912F9119
S11303200F900FBE0F901F9018951F920F920FB64B
S11303300F9211242F933F934F935F936F937F9367
S11303408F939F93AF93BF93EF93FF93E0915220CA
S1130350F0915320309709F00995FF91EF91BF91E7
S1130360AF919F918F917F916F915F914F913F9149
S11303702F910F900FBE0F901F9018951F920F9200
S11303800FB60F9211242F933F934F935F936F9364
S11303907F938F939F93AF93BF93EF93FF93E091DA
S11303A05020F0915120309709F00995FF91EF9179
S11303B0BF91AF919F918F917F916F915F914F9179
S11303C03F912F910F900FBE0F901F9018951F9281
S11303D00F920FB60F9211242F933F934F935F9375
S11303E06F937F938F939F93AF93BF93EF93FF93F9
S11303F0E0914E20F0914F20309709F00995FF913C
S1130400EF91BF91AF919F918F917F916F915F9188
S11304104F913F912F910F900FBE0F901F90189501
S11304201F920F920FB60F9211242F933F934F9365
S11304305F936F937F938F939F93AF93BF93EF9348
S1130440FF93E0914C20F0914D20309709F00995ED
S1130450FF91EF91BF91AF919F918F917F916F9198
S11304605F914F913F912F910F900FBE0F901F906E
S113047018951F920F920FB60F9211242F933F934A
S11304804F935F936F937F938F939F93AF93BF9398
S1130490EF93FF93E0914A20F0914B20309709F0BD
S11304A00995FF91EF91BF91AF919F918F917F91AA
S11304B06F915F914F913F912F910F900FBE0F90CD
S11304C01F9018951F920F920FB60F9211242F931D
S11304D03F934F935F936F937F938F939F93AF93C8
S11304E0BF93EF93FF93E0914820F0914920309718
S11304F009F00995FF91EF91BF91AF919F918F9171
S11305007F916F915F914F913F912F910F900FBE0B
S11305100F901F9018951F920F920FB60F921124EF
S11305202F933F934F935F936F937F938F939F93F7
S1130530AF93BF93EF93FF93E0914620F091472050
S1130540309709F00995FF91EF91BF91AF919F9179
S11305508F917F916F915F914F913F912F910F9068
S11305600FBE0F901F9018951F920F920FB60F9207
S113057011242F933F934F935F936F937F938F93A4
S11305809F93AF93BF93EF93FF93E0914420F09137
S11305904520309709F00995FF91EF91BF91AF91F4
S11305A09F918F917F916F915F914F913F912F9187
S11305B00F900FBE0F901F9018951F920F920FB6B9
S11305C00F9211242F933F934F935F936F937F93D5
S11305D08F939F93AF93BF93EF93FF93E091422048
S11305E0F0914320309709F00995FF91EF91BF9165
S11305F0AF919F918F917F916F915F914F913F91B7
S11306002F910F900FBE0F901F9018951F920F926D
S11306100FB60F9211242F933F934F935F936F93D1
S11306207F938F939F93AF93BF93EF93FF93E09147
S11306304020F0914120309709F00995FF91EF9106
S1130640BF91AF919F918F917F916F915F914F91E6
S11306503F912F910F900FBE0F901F9018951F92EE
S11306600F920FB60F9211242F933F934F935F93E2
S11306706F937F938F939F93AF93BF93EF93FF9366
S1130680E0913E20F0913F20309709F00995FF91C9
S1130690EF91BF91AF919F918F917F916F915F91F6
S11306A04F913F912F910F900FBE0F901F9018956F
S11306B01F920F920FB60F9211242F933F934F93D3
S11306C05F936F937F938F939F93AF93BF93EF93B6
S11306D0FF93E0913C20F0913D20309709F009957B
S11306E0FF91EF91BF91AF919F918F917F916F9106
S11306F05F914F913F912F910F900FBE0F901F90DC
S113070018951F920F920FB60F9211242F933F93B7
S11307104F935F936F937F938F939F93AF93BF9305
S1130720EF93FF93E0913A20F0913B20309709F04A
S11307300995FF91EF91BF91AF919F918F917F9117
S11307406F915F914F913F912F910F900FBE0F903A
S11307501F9018951F920F920FB60F9211242F938A
S11307603F934F935F936F937F938F939F93AF9335
S1130770BF93EF93FF93E0913820F09139203097A5
S113078009F00995FF91EF91BF91AF919F918F91DE
S11307907F916F915F914F913F912F910F900FBE79
S11307A00F901F9018951F920F920FB60F9211245D
S11307B02F933F934F935F936F937F938F939F9365
S11307C0AF93BF93EF93FF93E0913620F0913720DE
S11307D0309709F00995FF91EF91BF91AF919F91E7
S11307E08F917F916F915F914F913F912F910F90D6
S11307F00FBE0F901F9018951F920F920FB60F9275
S113080011242F933F934F935F936F937F938F9311
S11308109F93AF93BF93EF93FF93E0913420F091B4
S11308203520309709F00995FF91EF91BF91AF9171
S11308309F918F917F916F915F914F913F912F91F4
S11308400F900FBE0F901F9018951F920F920FB626
S11308500F9211242F933F934F935F936F937F9342
S11308608F939F93AF93BF93EF93FF93E0913220C5
S1130870F0913320309709F00995FF91EF91BF91E2
S1130880AF919F918F917F916F915F914F913F9124
S11308902F910F900FBE0F901F9018951F920F92DB
S11308A00FB60F9211242F933F934F935F936F933F
S11308B07F938F939F93AF93BF93EF93FF93E091B5
S11308C03020F0913120309709F00995FF91EF9194
S11308D0BF91AF919F918F917F916F915F914F9154
S11308E03F912F910F900FBE0F901F9018951F925C
S11308F00F920FB60F9211242F933F934F935F9350
S11309006F937F938F939F93AF93BF93EF93FF93D3
S1130910E0912E20F0912F20309709F00995FF9156
S1130920EF91BF91AF919F918F917F916F915F9163
S11309304F913F912F910F900FBE0F901F901895DC
S11309401F920F920FB60F9211242F933F934F9340
S11309505F936F937F938F939F93AF93BF93EF9323
S1130960FF93E0912C20F0912D20309709F0099508
S1130970FF91EF91BF91AF919F918F917F916F9173
S11309805F914F913F912F910F900FBE0F901F9049
S113099018951F920F920FB60F9211242F933F9325
S11309A04F935F936F937F938F939F93AF93BF9373
S11309B0EF93FF93E0912A20F0912B20309709F0D8
S11309C00995FF91EF91BF91AF919F918F917F9185
S11309D06F915F914F913F912F910F900FBE0F90A8
S11309E01F9018951F920F920FB60F9211242F93F8
S11309F03F934F935F936F937F938F939F93AF93A3
S1130A00BF93EF93FF93E0912820F0912920309732
S1130A1009F00995FF91EF91BF91AF919F918F914B
S1130A207F916F915F914F913F912F910F900FBEE6
S1130A300F901F9018951F920F920FB60F921124CA
S1130A402F933F934F935F936F937F938F939F93D2
S1130A50AF93BF93EF93FF93E0912620F09127206B
S1130A60309709F00995FF91EF91BF91AF919F9154
S1130A708F917F916F915F914F913F912F910F9043
S1130A800FBE0F901F9018958FEF80937000809386
S1130A90710080937200809373008093740080933C
S1130AA07500809376008091510084FD1CC0809174
S1130AB0510081FD0BC09FB7F894E0E5F0E0808120
S1130AC0826080839FBF818181FFFDCF9FB7F894AF
S1130AD0E0E5F0E083E885838081806180839FBFC7
S1130AE0818184FFFDCF64E080E490E009D09FB76A
S1130AF0F894E0E5F0E080818E7F80839FBF0895C5
S1130B001BBEFC0128ED24BF6083089508951F9245
S1130B100F920FB60F9211242F938F939F93EF93FD
S1130B20FF932FEF8DEE92E0215080409040E1F74B
S1130B3000C0000010925E2010925F2020910806F1
S1130B40822F817090E080935C2090935D2080914F
S1130B505C2090915D20019709F581E08093E7077F
S1130B60E0915A20F0915B20EE0FFF1FE65FFF4DEE
S1130B7080818093440680915A2090915B20019655
S1130B8080935A2090935B2080915A2090915B200F
S1130B900E9721F410925A2010925B20FF91EF914E
S1130BA09F918F912F910F900FBE0F901F901895CA
S1130BB01F920F920FB60F9211242F938F939F932E
S1130BC0EF93FF932FEF8DEE92E021508040904001
S1130BD0E1F700C0000010925A2010925B2080912F
S1130BE00806827090E080935C2090935D20809151
S1130BF05C2090915D20029709F581E08093E707DE
S1130C00E0915E20F0915F20EE0FFF1FE050F04E68
S1130C1080818093440680915E2090915F200196AC
S1130C2080935E2090935F2080915E2090915F205E
S1130C30059721F410925E2010925F20FF91EF91AE
S1130C409F918F912F910F900FBE0F901F90189529
S1130C501BDF5CDF8FEF80934006E0EEF7E081E07E
S1130C6081838583E0E0F6E0808B818B92E093873B
S1130C708287818589608187E0EAF0E082818260F1
S1130C808283828181608283789410925A201092A8
S10B0C905B20FFCFF894FFCFB5
S1130C988100420024001800000001000200040042
S1130CA808001000200040008000400020001000D0
S1090CB808000400020024
S9030000FC
