S00E00006D61737465722E737265638A
S1130000FDC0000016C1000014C1000012C10000B0
S113001010C100000EC100000CC100000AC10000A4
S113002008C1000006C1000004C1000002C10000B4
S113003000C10000FEC00000FCC00000FAC00000C7
S1130040F8C00000F6C00000F4C00000F2C00000D8
S1130050F0C00000EEC00000ECC00000EAC00000E8
S113006037C20000E6C00000E4C00000E2C00000A7
S1130070E0C00000DEC00000DCC00000DAC0000008
S1130080D8C00000D6C00000D4C00000D2C0000018
S1130090D0C00000CEC00000CCC00000CAC0000028
S11300A0C8C00000C6C00000C4C00000C2C0000038
S11300B0C0C00000BEC00000BCC00000BAC0000048
S11300C0B8C00000B6C00000B4C00000B2C0000058
S11300D0B0C00000AEC00000ACC00000AAC0000068
S11300E0A8C00000A6C00000A4C00000A2C0000078
S11300F0A0C000009EC000009CC000009AC0000088
S113010098C0000096C0000094C0000092C0000097
S113011090C000008EC000008CC000008AC00000A7
S113012088C0000086C0000084C0000082C00000B7
S113013080C000007EC000007CC000007AC00000C7
S113014078C0000076C0000074C0000072C00000D7
S113015070C000006EC000006CC00000DEC1000072
S113016068C0000066C0000064C0000062C00000F7
S113017060C000005EC000005CC000005AC0000007
S113018058C0000056C0000054C0000052C0000017
S113019050C000004EC000004CC000004AC0000027
S11301A048C0000046C0000044C0000042C0000037
S11301B040C000003EC000003CC000003AC0000047
S11301C038C0000036C0000034C0000032C0000057
S11301D030C000002EC000002CC000002AC0000067
S11301E028C0000026C0000024C0000022C0000077
S11301F020C000001EC000001CC0000011241FBE4F
S1130200CFEFCDBFDFE2DEBF10E2A0E0B0E2ECE46E
S1130210F5E002C005900D92A430B107D9F720E2B1
S1130220A4E0B0E201C01D92AD31B207E1F701D103
S11302308BC1E6CE08958FEF809370008093710098
S11302408093720080937300809374008093750090
S1130250809376008091510084FD0DC09FB7F8947F
S1130260E0E5F0E088E185838081806180839FBF41
S1130270818184FFFDCF64E080E490E001C00895B3
S11302801BBEFC0128ED24BF60830895AF92CF927A
S1130290EF920F93FC01902F608371834283538309
S11302A01482C11002C080E001C080E80A2D0064FD
S11302B0082B211102C080E001C080E29061A02ED1
S11302C0A82A092F0A29DB010C93A081B181119678
S11302D0EC92158216820280F381E02D80EA8183FC
S11302E00F91EF90CF90AF900895EF920F93FC0190
S11302F06083718342835383211102C080E401C06F
S113030080E6082BDB010C93A081B1811196EC925D
S11303100280F381E02D80E481830F91EF900895B2
S1130320EF920F931F93FC0100831183E282638396
S11303307483458356832783108611861F910F91FA
S1130340EF900895CF93DF93FC01A581B6811896B1
S11303508C911897C081D181988194FD03C091E05C
S1130360948329C09B8115960D90BC91A02DA80F54
S1130370B11D9C938F5FA581B68117969C911797A9
S1130380891760F413960D90BC91A02DA80FB11D90
S11303909C91A081B18113969C930DC012969C915F
S11303A012970D90BC91A02D15969C93A581B681B2
S11303B091E019969C930580F681E02D8087DF916A
S11303C0CF910895FC019481A581B681109761F0C5
S11303D019968C91882349F1992331F0A281B38134
S11303E014968C9184FF23C065837683DB01199670
S11303F01C921482A581B68112968C9112970D904D
S1130400BC91A02D16968C93A581B68118961C924A
S1130410A581B68113960D90BC91A02D8C9101906D
S1130420F081E02D838380E0089582E0089581E0E7
S1130430089501DFFFDEE0E4F6E080E1818398E3E4
S1130440948B8583A12CC12CEE24E39400E020E05E
S113045040E456E060EC78E089E090E217DF6894CD
S1130460EE24E1F820E040E656E060EC79E084E038
S113047090E23BDFE0EAF0E082818360828378945B
S11304806894EE24E4F800E416E023E040E150E24E
S113049060E070E283E190E243DF63E170E289E0CF
S11304A090E290DF8111F9CFE3E1F0E281858823C6
S11304B0E9F381E090911120963509F080E0909164
S11304C012209B3A09F080E0809308200000FECFC0
S11304D01F920F920FB60F9211242F933F934F93B5
S11304E05F936F937F938F939F93AF93BF93EF9398
S11304F0FF9389E090E226DFFF91EF91BF91AF91E6
S11305009F918F917F916F915F914F913F912F9127
S11305100F900FBE0F901F9018951F920F920FB659
S11305200F9211248F93EF93FF93E0910420F091A5
S1130530052083818F5F8383FF91EF918F910F90CB
S10F05400FBE0F901F901895F894FFCF89
S107054C55AA0000A8
S9030000FC
