S00C0000444143312E737265631F
S1130000BBC00000D4C00000D2C00000D0C00000BB
S1130010CEC00000CCC00000CAC00000C8C00000B0
S1130020C6C00000C4C00000C2C00000C0C00000C0
S1130030BEC00000BCC00000BBC00000E2C00000A5
S113004009C1000030C1000057C100007EC100009A
S1130050A5C10000CCC10000F3C100001AC2000019
S1130060A6C00000A4C00000A2C00000A0C0000000
S11300709EC000009CC000009AC0000098C0000010
S113008096C0000094C0000092C0000090C0000020
S11300908EC000008CC000008AC0000088C0000030
S11300A086C0000084C0000082C0000080C0000040
S11300B07EC000007CC000007AC00000ADC3000018
S11300C0D4C30000FBC3000022C4000049C40000E4
S11300D070C400006CC000006AC0000068C000006A
S11300E066C0000064C0000062C0000060C0000080
S11300F05EC000005CC000005AC0000058C0000090
S113010056C0000054C0000052C0000050C000009F
S11301104EC000004CC000004AC0000048C00000AF
S113012046C0000044C0000042C0000040C00000BF
S11301303EC00000D7C10000FEC1000025C200007F
S11301404CC2000073C200009AC20000C1C2000089
S1130150E8C200000FC3000036C3000028C000003E
S113016026C0000024C0000022C0000020C00000FF
S11301701EC000001CC0000011241FBECFEFCDBF65
S1130180DFE2DEBF10E2A0E0B0E2EAECFCE002C095
S113019005900D92A034B107D9F720E2A0E4B0E2B3
S11301A001C01D92A537B207E1F73AD58CC528CF17
S11301B01F920F920FB60F9211242F933F934F93D8
S11301C05F936F937F938F939F93AF93BF93EF93BB
S11301D0FF93E0917220F0917320309709F0099514
S11301E0FF91EF91BF91AF919F918F917F916F910B
S11301F05F914F913F912F910F900FBE0F901F90E1
S113020018951F920F920FB60F9211242F933F93BC
S11302104F935F936F937F938F939F93AF93BF930A
S1130220EF93FF93E0917020F0917120309709F0E3
S11302300995FF91EF91BF91AF919F918F917F911C
S11302406F915F914F913F912F910F900FBE0F903F
S11302501F9018951F920F920FB60F9211242F938F
S11302603F934F935F936F937F938F939F93AF933A
S1130270BF93EF93FF93E0916E20F0916F2030973E
S113028009F00995FF91EF91BF91AF919F918F91E3
S11302907F916F915F914F913F912F910F900FBE7E
S11302A00F901F9018951F920F920FB60F92112462
S11302B02F933F934F935F936F937F938F939F936A
S11302C0AF93BF93EF93FF93E0916C20F0916D2077
S11302D0309709F00995FF91EF91BF91AF919F91EC
S11302E08F917F916F915F914F913F912F910F90DB
S11302F00FBE0F901F9018951F920F920FB60F927A
S113030011242F933F934F935F936F937F938F9316
S11303109F93AF93BF93EF93FF93E0916A20F09183
S11303206B20309709F00995FF91EF91BF91AF9140
S11303309F918F917F916F915F914F913F912F91F9
S11303400F900FBE0F901F9018951F920F920FB62B
S11303500F9211242F933F934F935F936F937F9347
S11303608F939F93AF93BF93EF93FF93E091682094
S1130370F0916920309709F00995FF91EF91BF91B1
S1130380AF919F918F917F916F915F914F913F9129
S11303902F910F900FBE0F901F9018951F920F92E0
S11303A00FB60F9211242F933F934F935F936F9344
S11303B07F938F939F93AF93BF93EF93FF93E091BA
S11303C06620F0916720309709F00995FF91EF912D
S11303D0BF91AF919F918F917F916F915F914F9159
S11303E03F912F910F900FBE0F901F9018951F9261
S11303F00F920FB60F9211242F933F934F935F9355
S11304006F937F938F939F93AF93BF93EF93FF93D8
S1130410E0916420F0916520309709F00995FF91EF
S1130420EF91BF91AF919F918F917F916F915F9168
S11304304F913F912F910F900FBE0F901F901895E1
S11304401F920F920FB60F9211242F933F934F9345
S11304505F936F937F938F939F93AF93BF93EF9328
S1130460FF93E0916220F0916320309709F00995A1
S1130470FF91EF91BF91AF919F918F917F916F9178
S11304805F914F913F912F910F900FBE0F901F904E
S113049018951F920F920FB60F9211242F933F932A
S11304A04F935F936F937F938F939F93AF93BF9378
S11304B0EF93FF93E0916020F0916120309709F071
S11304C00995FF91EF91BF91AF919F918F917F918A
S11304D06F915F914F913F912F910F900FBE0F90AD
S11304E01F9018951F920F920FB60F9211242F93FD
S11304F03F934F935F936F937F938F939F93AF93A8
S1130500BF93EF93FF93E0915E20F0915F203097CB
S113051009F00995FF91EF91BF91AF919F918F9150
S11305207F916F915F914F913F912F910F900FBEEB
S11305300F901F9018951F920F920FB60F921124CF
S11305402F933F934F935F936F937F938F939F93D7
S1130550AF93BF93EF93FF93E0915C20F0915D2004
S1130560309709F00995FF91EF91BF91AF919F9159
S11305708F917F916F915F914F913F912F910F9048
S11305800FBE0F901F9018951F920F920FB60F92E7
S113059011242F933F934F935F936F937F938F9384
S11305A09F93AF93BF93EF93FF93E0915A20F09101
S11305B05B20309709F00995FF91EF91BF91AF91BE
S11305C09F918F917F916F915F914F913F912F9167
S11305D00F900FBE0F901F9018951F920F920FB699
S11305E00F9211242F933F934F935F936F937F93B5
S11305F08F939F93AF93BF93EF93FF93E091582012
S1130600F0915920309709F00995FF91EF91BF912E
S1130610AF919F918F917F916F915F914F913F9196
S11306202F910F900FBE0F901F9018951F920F924D
S11306300FB60F9211242F933F934F935F936F93B1
S11306407F938F939F93AF93BF93EF93FF93E09127
S11306505620F0915720309709F00995FF91EF91BA
S1130660BF91AF919F918F917F916F915F914F91C6
S11306703F912F910F900FBE0F901F9018951F92CE
S11306800F920FB60F9211242F933F934F935F93C2
S11306906F937F938F939F93AF93BF93EF93FF9346
S11306A0E0915420F0915520309709F00995FF917D
S11306B0EF91BF91AF919F918F917F916F915F91D6
S11306C04F913F912F910F900FBE0F901F9018954F
S11306D01F920F920FB60F9211242F933F934F93B3
S11306E05F936F937F938F939F93AF93BF93EF9396
S11306F0FF93E0915220F0915320309709F009952F
S1130700FF91EF91BF91AF919F918F917F916F91E5
S11307105F914F913F912F910F900FBE0F901F90BB
S113072018951F920F920FB60F9211242F933F9397
S11307304F935F936F937F938F939F93AF93BF93E5
S1130740EF93FF93E0915020F0915120309709F0FE
S11307500995FF91EF91BF91AF919F918F917F91F7
S11307606F915F914F913F912F910F900FBE0F901A
S11307701F9018951F920F920FB60F9211242F936A
S11307803F934F935F936F937F938F939F93AF9315
S1130790BF93EF93FF93E0914E20F0914F20309759
S11307A009F00995FF91EF91BF91AF919F918F91BE
S11307B07F916F915F914F913F912F910F900FBE59
S11307C00F901F9018951F920F920FB60F9211243D
S11307D02F933F934F935F936F937F938F939F9345
S11307E0AF93BF93EF93FF93E0914C20F0914D2092
S11307F0309709F00995FF91EF91BF91AF919F91C7
S11308008F917F916F915F914F913F912F910F90B5
S11308100FBE0F901F9018951F920F920FB60F9254
S113082011242F933F934F935F936F937F938F93F1
S11308309F93AF93BF93EF93FF93E0914A20F0917E
S11308404B20309709F00995FF91EF91BF91AF913B
S11308509F918F917F916F915F914F913F912F91D4
S11308600F900FBE0F901F9018951F920F920FB606
S11308700F9211242F933F934F935F936F937F9322
S11308808F939F93AF93BF93EF93FF93E09148208F
S1130890F0914920309709F00995FF91EF91BF91AC
S11308A0AF919F918F917F916F915F914F913F9104
S11308B02F910F900FBE0F901F9018951F920F92BB
S11308C00FB60F9211242F933F934F935F936F931F
S11308D07F938F939F93AF93BF93EF93FF93E09195
S11308E04620F0914720309709F00995FF91EF9148
S11308F0BF91AF919F918F917F916F915F914F9134
S11309003F912F910F900FBE0F901F9018951F923B
S11309100F920FB60F9211242F933F934F935F932F
S11309206F937F938F939F93AF93BF93EF93FF93B3
S1130930E0914420F0914520309709F00995FF910A
S1130940EF91BF91AF919F918F917F916F915F9143
S11309504F913F912F910F900FBE0F901F901895BC
S11309601F920F920FB60F9211242F933F934F9320
S11309705F936F937F938F939F93AF93BF93EF9303
S1130980FF93E0914220F0914320309709F00995BC
S1130990FF91EF91BF91AF919F918F917F916F9153
S11309A05F914F913F912F910F900FBE0F901F9029
S11309B018951F920F920FB60F9211242F933F9305
S11309C04F935F936F937F938F939F93AF93BF9353
S11309D0EF93FF93E0914020F0914120309709F08C
S11309E00995FF91EF91BF91AF919F918F917F9165
S11309F06F915F914F913F912F910F900FBE0F9088
S1130A001F901895CF93CFB7F894282F392F21151D
S1130A1088E0380739F461E083E058D064E083E08B
S1130A2055D02DC0203488E0380739F462E083E0E3
S1130A304DD064E083E04AD022C0211589E0380714
S1130A4039F461E084E042D064E084E03FD017C030
S1130A50203489E0380739F462E084E037D064E078
S1130A6084E034D00CC021153A4039F461E085E0CB
S1130A702DD064E085E02AD002C0CFBF01C0CFBF33
S1130A80CF9108958FEF80937000809371008093CD
S1130A907200809373008093740080937500809338
S1130AA07600E0E5F0E0818184FD0BC08FB7F89417
S1130AB090E195839081906190838FBF818184FFC1
S1130AC0FDCF64E080E490E0A4C008959FB7F8945B
S1130AD0E82FF0E0E059FF4F609580816823608340
S1130AE09FBF08959FB7F894E82FF0E0E059FF4FB7
S1130AF08081682B60839FBF08958032934059F4AE
S1130B008091742091E0980F90937420811103C018
S1130B1064E082E0DBCF08958032934051F4809109
S1130B207420815080937420811103C064E082E0BA
S1130B30D9CF08951F93CF93DF93EC011FB7F89497
S1130B40DCDF8881816088831FBFDF91CF911F9193
S1130B500895DF92EF92FF920F931F93CF93DF9349
S1130B60EC018B01C03283E0D80711F563E370E038
S1130B7082E045D0D82E62E370E082E040D0E82ED7
S1130B80FFB6F894CE01B9DF88811882F80191810B
S1130B90998392819A8393819B8394819C83D88641
S1130BA0E98681709081892B8883CE01B5DFFFBEF1
S1130BB0DF91CF911F910F91FF90EF90DF900895F7
S1130BC0FF920F931F93CF93DF93EC018B01FFB63A
S1130BD0F89493DF88818E7FF801808389818183F3
S1130BE08A8182838B8183838C818483CE0194DF89
S1130BF0FFBEDF91CF911F910F91FF900895409117
S1130C00CA01E62FF72F8093CA0184914093CA0149
S1130C1008951BBEFC0128ED24BF60830895089548
S1130C20CF93DF93CDB7DEB72597CDBFDEBFF7DF18
S1130C3029DF62E080E04ADF80ECE0E8F1E08383D2
S1130C4080E098E0DFDEE0E0F8E08181887F818366
S1130C5081EC90E086A397A38081807F816080836C
S1130C60BE016F5F7F4F80E293E0AADF81E08B8358
S1130C7084E089838A818C7981608A8383E08C8390
S1130C808D818F7880658D83BE016F5F7F4F80E299
S1130C9093E05FDF80E293E04DDF20E0E0E2F3E009
S1130CA0858180FFFDCFA22FB0E0AA0FBB1FA0500B
S1130CB0B04E8D919C913FB7F894808F918F3FBF38
S10D0CC02F5F2F71EDCFF894FFCFE2
S1130CCA0080FD899893729C34A492AA4DAF37B2DE
S1130CDA33B337B24DAF92AA34A4729C9893FD8968
S1130CEA00800376686C8E63CC5B6E55B350C94D35
S1130CFACD4CC94DB3506E55CC5B8E63686C03768C
S9030000FC
