S011000043414C454E4441527D2E737265635C
S1130000C3C00000DCC00000DAC00000D8C000009B
S1130010D6C00000D4C00000D2C00000D0C0000090
S1130020CEC00000CCC00000EAC3000001C4000040
S1130030C6C00000C4C00000C2C00000C0C00000B0
S1130040BEC00000BCC00000BAC00000B8C00000C0
S1130050B6C00000B4C00000B2C00000B0C00000D0
S1130060AEC00000ACC00000AAC00000A8C00000E0
S1130070A6C00000A4C00000A2C00000A0C00000F0
S11300809EC000009CC000009AC0000098C0000000
S113009096C0000094C0000092C0000090C0000010
S11300A08EC000008CC000008AC0000088C0000020
S11300B086C0000084C0000082C0000080C0000030
S11300C07EC000007CC000007AC0000078C0000040
S11300D076C0000074C0000072C0000070C0000050
S11300E06EC000006CC000006AC0000068C0000060
S11300F066C0000064C0000062C0000060C0000070
S11301005EC000005CC000005AC0000058C000007F
S113011056C0000054C0000052C0000050C000008F
S11301204EC000004CC000004AC0000048C000009F
S113013046C0000044C0000042C0000040C00000AF
S11301403EC000003CC000003AC0000038C00000BF
S113015036C0000034C0000032C0000030C00000CF
S113016079C400002CC000002AC0000028C0000090
S113017026C0000024C00000B504B904BF04C504AF
S1130180CB04D104D704DD0411241FBECFEFCDBFAF
S1130190DFE2DEBF10E2A0E0B0E2E2E8FBE002C092
S11301A005900D92A832B107D9F720E2A8E2B0E297
S11301B001C01D92AE33B207E1F780D4E0C420CF72
S11301C0AC0183709927892B61F59A01369527959F
S11301D036952795ABE7B4E1C3D49695879564E645
S11301E0689F9001699F300D112442175307D9F479
S11301F09A01329522952F7023273F702327AEE36F
S1130200BAE0AED420E931E0829FB001839F700D43
S1130210929F700D112481E04617570729F080E062
S1130220089580E0089581E00895EF92FF920F937E
S11302301F93CF93DF93EC0188818F5F8C3311F090
S1130240888340C0188289818F5F8C33D1F58A817D
S11302508F5F8831A1F5FB80EC800D811E81F394C2
S1130260C8019927ADDF90E0FC01EE0FFF1F8E0F50
S11302709F1FFC01EE0FFF1FEE0FFF1FEE0DF11D80
S1130280E15FFF4D8081F81211C081E08E0D8C304A
S113029059F4093388E0180730F40F5F1F4F0D83BA
S11302A01E8380E001C080E08C83F12C8F818F5FFE
S11302B0873011F08F8301C01F82FB8280E08A8324
S11302C080E08983DF91CF911F910F91FF90EF9090
S11302D00895FC01818185FFFDCF608380E090E07B
S11302E00895FC0181818823ECF7808108954F9261
S11302F05F926F927F928F929F92AF92BF92CF92B2
S1130300DF92EF92FF920F931F93CF93DF93EC0151
S11303104A015B0128013901D901C801689412F826
S1130320B695A795979587951694D1F7B901A80125
S1130330032E36E176956795579547953A95D1F70B
S1130340302D2C8122FD08C0B695A79597958795E9
S1130350769567955795479588159905AA05BB0520
S113036008F4A2C084169506A606B70608F49EC033
S11303708C8182FD04C0880C991CAA1CBB1CC3017F
S1130380B201A5019401C4D32F3F310541055105A4
S113039008F48EC0C12CD12C7601CA9419EF05C083
S11303A02C153D054E055F0568F0CC0CDD1CEE1CDC
S11303B0FF1C1D3F14F46894C0F81F5F173081F7C9
S11303C0212F4EC0212F11230CF04AC0D501C401A6
S11303D0880F991FAA1FBB1F880F991FAA1FBB1F35
S11303E0880F991FAA1FBB1F481A590A6A0A7B0A59
S11303F01E3FECF46DEF7FEF611B710917FD7395E0
S113040004C0440C551C661C771C6A95D2F7D501B0
S1130410C401B695A79597958795BC01CD01640D48
S1130420751D861D971DA501940172D334C023E068
S1130430210FD501C40104C0880F991FAA1FBB1F37
S11304402A95D2F79C01AD01B695A7959795879506
S1130450BC01CD01640D751D861D971D59D31BC0AC
S11304602D5FD501C40104C0880F991FAA1FBB1FAB
S11304702A95D2F79C01AD01B695A79597958795D6
S1130480BC01CD01640D751D861D971D41D32150FE
S1130490310941095109832F8F701295107F182B50
S11304A01F832E8381E018C080E016C080E014C052
S11304B0D501C401880F991FAA1FBB1F880F991F5C
S11304C0AA1FBB1F880F991FAA1FBB1F481A590ACE
S11304D06A0A7B0A19EF8ECFDF91CF911F910F919A
S11304E0FF90EF90DF90CF90BF90AF909F908F9050
S11304F07F906F905F904F9008950F931F93CF93C9
S1130500DF93EC018B01009709F4BEC0803C910598
S113051021F460E180E005D1B7C0C11584E0D807BB
S113052021F464E080E0FDD0AFC0C038E1E0DE0734
S113053021F462E080E0F5D0A7C0C115F1E0DF0747
S113054021F461E080E0EDD09FC0C03883E0D8079B
S113055021F461E081E0E5D097C0C115E2E0DE0757
S113056021F462E081E0DDD08FC0C032F3E0DF0728
S113057021F464E082E0D5D087C0C11588E0D807B3
S113058021F461E083E0CDD07FC0C115E9E0DE074E
S113059021F461E084E0C5D077C0C115FAE0DF073B
S11305A021F461E085E0BDD06FC0C03488E0D80795
S11305B021F462E083E0B5D067C0C034E9E0DE072F
S11305C021F462E084E0ADD05FC0C039F8E0DF0719
S11305D021F464E083E0A5D057C0C03989E0D8078E
S11305E021F464E084E09DD04FC0C039EAE0DE0726
S11305F021F464E085E095D047C0C03CF8E0DF0713
S113060021F468E083E08DD03FC0C03C89E0D80786
S113061021F468E084E085D037C0C03AE8E0DE0722
S113062021F460E183E07DD02FC0C03AF9E0DF0718
S113063021F460E184E075D027C0C03A8AE0D8078D
S113064021F460E185E06DD01FC0C03BE8E0DE0727
S113065021F460E283E065D017C0C03BF9E0DF0716
S113066021F460E284E05DD00FC0C03884E0D80794
S113067021F460E483E055D007C0C03AE4E0DE072B
S113068019F460E485E04DD08D818F738D83F8017A
S113069094818581892B9681992311F098E001C07A
S11306A090E0892B8D83F8014081518162817381AF
S11306B000E018E428EE31E0CE0119DE9C81986058
S11306C09C839C8190619C83DF91CF911F910F91BA
S11306D008958FEF8093700080937100809372006F
S11306E080937300809374008093750080937600E8
S11306F0E0E5F0E0818184FD0BC08FB7F89490E1D0
S113070095839081906190838FBF818184FFFDCF19
S113071064E080E490E003D181E0E0E4F0E08383EE
S113072008959FB7F894E82FF0E0E059FF4F6095E3
S11307308081682360839FBF08950F931F93E0E037
S1130740F4E0818180FDFDCF2FB7F89440912E20F5
S113075050912F20E0E0F4E080859185009729F402
S1130760338130FF02C04F5F5F4F2FBF60E070E006
S1130770BA0155274427A0E0B0E08A019B01082B69
S1130780192B2A2B3B2BC901B8011F910F910895F6
S1130790E0E0F4E021E022836487758760933220EF
S11307A0709333208093302090933120818180FD99
S11307B0FDCFE0E0F4E082E0838385E08283089566
S11307C08093342090933520089564E080E0A9DF7D
S11307D0E0E0F4E08FEF9FEF828793871086118625
S11307E08FB7F894EBE2F0E290819F5F90838FBF24
S11307F0E0E0F4E081E0828387E0808308951F9243
S11308000F920FB60F9211248F939F93EF93FF9340
S1130810EEE2F0E280819181019680839183FF91E1
S1130820EF919F918F910F900FBE0F901F9018958D
S11308301F920F920FB60F921124CF92DF92EF9274
S1130840FF920F931F932F933F934F935F936F9355
S11308507F938F939F93AF93BF93EF93FF934091B5
S11308602E2050912F2080913020909131204817D4
S11308705907F0F181E0E0E0F4E08283E091342074
S1130880F09135203097A1F1A0E0B4E018968D9155
S11308909C91199760E070E0BA0155274427A0E0C5
S11308A0B0E08A019B01082B192B2A2B3B2BC90191
S11308B0B801009130201091312020E030E09801FF
S11308C011270027C0903220D0903320E12CF12C46
S11308D00C291D292E293F29061717072807390730
S11308E030F0C901B8016F5F7F4F8F4F9F4F09955B
S11308F0FF91EF91BF91AF919F918F917F916F91F4
S11309005F914F913F912F911F910F91FF90EF9025
S1130910DF90CF900F900FBE0F901F9018951BBEC5
S1130920FC0128ED24BF6083089581E0E0EEF7E048
S113093081838FEF80934006E0E6F6E088E08183D0
S1130940858384E0828386830895F7DE60933C2068
S113095070933D20E0913A20F0913B203197E830AC
S1130960F10580F5E454FF4FF5C080EA99E0B1CC7D
S113097008956091092080EA99E0ABCC08956091D4
S1130980082080EA99E0A5CC08956091072080EAC8
S113099099E09FCC089560910C2080EA99E099CC6D
S11309A0089560910B2080EA99E093CC08956091BA
S11309B00A2080EA99E08DCC089560910E2080EAA7
S11309C099E087CC08954F925F926F927F928F92B5
S11309D09F92AF92BF92CF92DF92EF92FF926B0100
S11309E07C0187E090E221DC81E0E0EEF7E08783A0
S11309F0C701B601CDDE0F2EFAE08F2E912CA12C6B
S1130A00B12CF02DC701B601A501940181D02B01B1
S1130A103C01C701B6016419750986099709A50146
S1130A20940176D0CA01B901A501940171D06295EF
S1130A30607F462AE0E4F6E04482FF90EF90DF9086
S1130A40CF90BF90AF909F908F907F906F905F906A
S1130A504F9008951F920F920FB60F9211242F9367
S1130A603F934F935F936F937F938F939F93AF9332
S1130A70BF93EF93FF9380EA99E033DC90E0809397
S1130A803A2090933B2061DFE0EAF9E0818186FF20
S1130A90FDCF80E4E0EAF9E08183FF91EF91BF911B
S1130AA0AF919F918F917F916F915F914F913F9102
S1130AB02F910F900FBE0F901F90189587E0E0EADA
S1130AC0F0E0828332DF05DE109228201092292084
S1130AD010922A2010922B2010922C2081E08093D7
S1130AE02D2073DE83EE94E06BDE789426DE50DEF8
S1130AF060E184E016DE60E070E280EA99E0FDDC0B
S1130B00E0EAF9E083818F7C806183831EDFFECF7E
S1130B10A1E21A2EAA1BBB1BFD010DC0AA1FBB1FFD
S1130B20EE1FFF1FA217B307E407F50720F0A21B6F
S1130B30B30BE40BF50B661F771F881F991F1A94DC
S1130B4069F760957095809590959B01AC01BD0106
S1130B50CF010895EE0FFF1F0590F491E02D099445
S1130B60A29FB001B39FC001A39F700D811D1124EA
S1130B70911DB29F700D811D1124911D0895F8944B
S1050B80FFCFA1
S1130B82802500000300000035131309DF07001F4E
S1130B921C1F1E1F1E1F1F1E1F1E1F1F1D1F1E1F69
S10B0BA21E1F1F1E1F1E1F0071
S9030000FC
