S00C00004C4344312E7372656314
S113000040C1000059C1000057C1000055C10000A3
S113001053C1000051C100004FC100004DC1000098
S11300204BC1000049C1000047C1000045C10000A8
S113003043C1000041C100003FC100003DC10000B8
S11300403BC1000039C1000037C1000035C10000C8
S113005033C1000031C100002FC100002DC10000D8
S11300602BC1000029C1000027C1000025C10000E8
S113007023C1000021C100001FC100001DC10000F8
S11300801BC1000019C1000017C1000015C1000008
S113009013C1000011C100000FC100000DC1000018
S11300A00BC1000009C1000007C1000005C1000028
S11300B003C1000001C10000FFC00000FDC000003A
S11300C0FBC00000F9C00000F7C00000F5C000004C
S11300D0F3C00000F1C00000EFC00000EDC000005C
S11300E0EBC00000E9C00000E7C00000E5C000006C
S11300F0E3C00000E1C00000DFC00000DDC000007C
S1130100DBC00000D9C00000D7C00000D5C000008B
S1130110D3C00000D1C00000CFC00000CDC000009B
S1130120CBC00000C9C00000C7C00000C5C00000AB
S1130130C3C00000C1C00000BFC00000BDC00000BB
S1130140BBC00000B9C00000B7C00000B5C00000CB
S1130150B3C00000B1C00000AFC00000ADC00000DB
S1130160ABC00000A9C00000A7C00000A5C00000EB
S1130170A3C00000A1C0000020584D454741204ABB
S11301806F6E617468616E0000407A10F35A00A0CB
S1130190724E18090010A5D4E80000E8764817004C
S11301A000E40B54020000CA9A3B000000E1F5058C
S11301B0000080969800000040420F000000A086D6
S11301C001000000102700000000E8030000000008
S11301D06400000000000A000000000001000000AC
S11301E000002C76D888DC674F0823DFC1DFAE59C6
S11301F0E1B1B796E5E3E453C63AE651997696E859
S1130200E6C28426EB898C9B62ED407C6FFCEFBCDC
S11302109C9F40F2BAA56FA5F490055A2AF75C9307
S11302206B6CF9676DC11BFCE0E40D47FEF520E63D
S1130230B500D0ED902E0300943577050080841E20
S1130240080000204E0A000000C80C333333330F7B
S1130250986E12831141EF8D2114893BE65516CF18
S1130260FEE6DB18D1844B381BF77C1D901DA4BB24
S1130270E424203284725E228100C9F124ECA1E5D9
S11302803D2711241FBECFEFCDBFDFE2DEBF10E25A
S1130290A0E0B0E2EAEAFAE002C005900D92AE34C2
S11302A0B107D9F720E2AEE4B0E201C01D92A23555
S11302B0B207E1F712D1F7C3A3CE80FF04C090E1E7
S11302C09093450603C090E19093460681FF04C0D5
S11302D090E29093450603C090E29093460682FF15
S11302E004C090E49093450603C090E490934606BE
S11302F083FF04C080E880934506089580E88093D6
S1130300460608950F931F93CF93DF93082FC0E4FD
S1130310D6E018E01D8382958F70CFDF1E83000026
S11303201D83802FCADF1E838FE891E00197F1F7C8
S113033000C00000DF91CF911F910F91089594E0C8
S113034090934606DFCF089594E090934506DACF64
S113035008950F931F93CF93DF938B018770880FBA
S1130360880F880F805CEBDFE801085F1F4F8991DD
S1130370EBDFC017D107D9F7DF91CF911F910F9110
S11303800895CF93DF93EC016130710521F480E887
S1130390840FD5DF03C080EC840FD1DF88818823EC
S11303A029F02196D1DF89918111FCCFDF91CF9182
S11303B00895CF92DF92EF92FF920F931F93CF9302
S11303C0DF93CDB7DEB72F97CDBFDEBF7A016901CA
S11303D08E010F5F1F4F22E043E0E7D0A601B70173
S11303E0C801CFDF2F96CDBFDEBFDF91CF911F9124
S11303F00F91FF90EF90DF90CF900895CF93DF930C
S1130400EC012196FC018491882331F09DDFFE01EB
S1130410849121968111FACFDF91CF91089590E4D0
S1130420699F800D112480688ACF089581E087DF59
S11304308FE79EE30197F1F700C000000895FF9253
S11304400F931F93CF93DF93E0E4F6E08CEF818367
S11304508FE39CE90197F1F700C000008CE08683EC
S1130460C3E000E416E0D8E0FD2EF801F58283E055
S113047024DFF801D6838FE39CE90197F1F700C0EC
S11304800000C15091F7C0E4D6E018E01D8382E07B
S113049014DF1E83EFE3FFE13197F1F700C00000A2
S11304A088E24DDF88E04BDF81E049DF8FE79EE3A0
S11304B00197F1F700C0000086E041DF8CE03FDFE8
S11304C0DF91CF911F910F91FF9008958FEF80934B
S11304D0400680E2809362060895F8DFB0DF64E2AC
S11304E070E280E036DF6DE270E281E032DF66E3E5
S11304F070E282E02EDF6FE370E283E02ADF60E0E7
S113050070E284E026DF69E070E285E022DF62E1E8
S113051070E286E01EDF6BE170E287E01ADF40E004
S113052050E061E070E088E490E22BDF40E050E0CE
S113053062E070E08BE490E224DFC0E6D6E00F2EA8
S1130540F6EACF2EF1EFDF2EF6E4EF2EF6ECFF2ED7
S1130550F02D888585FDFDCF2FEF83EF91E02150AD
S113056080409040E1F700C00000C0924E20D0923D
S11305704F20E0925020F092512058DF60E080E05C
S11305804EDF88E791E03ADF61E086E048DF609182
S11305904E2070914F20809150209091512021E065
S11305A030E042E050E005DFD4CFEF920F931F9389
S11305B0CF93DF93E80147FD02C034E001C034E18A
S11305C0E42F440FFF0BF7FF03C0F195E195F10908
S11305D0E32E022F2E2FAE0107D0CE01DF91CF9153
S11305E01F910F91EF9008954F925F926F927F92B7
S11305F09F92AF92BF92CF92DF92EF92FF920F93AE
S11306001F93CF93DF93CDB7DEB72997CDBFDEBF5E
S11306106A01122FB02E2BE3201720F0FF24F3944D
S1130620F00E02C0BCE3FB2E0F2D27E0AE014F5F9E
S11306305F4F61D1AC018981982F9970913031F06D
S1130640E1FC06C0E0FE06C090E205C09DE203C0E6
S11306509BE201C090E0EE2DE07183FF3CC091115C
S113066002C083E001C084E0811718F4212F281B05
S113067001C020E0E1110BC0F601822F30E2882393
S113068019F031938150FBCFC20ED11C20E0992385
S113069029F0D6019C93F60131966F01C6010396A9
S11306A0E2FE0AC03EE4D6013C9341E411964C9329
S11306B0119712963C9306C03EE6F601308341E65C
S11306C041833283FC01322F40E2332309F442C0D8
S11306D041933150FACF82FF44C0911102C083E0AC
S11306E001C084E0811718F4212F281B01C020E0E9
S11306F0E1110BC0F601822F30E2882319F0319307
S11307008150FBCFC20ED11C20E0992329F0D601E1
S11307109C93F60131966F01C6010396E2FE0BC06D
S113072039E4D6013C933EE411963C93119736E4A8
S113073012963C9307C039E6F60130833EE63183D6
S113074036E63283FC01322F40E2332319F0419321
S11307503150FBCFFC01E20FF11D10828EEF9FEFB1
S1130760B7C0F1E0911101C0F0E06F2F70E01416F2
S1130770150624F49A012F5F3F4F02C021E030E0B8
S1130780260F371FBB2029F06B2D70E06F5F7F4F62
S113079002C060E070E0260F371F612F70E026175B
S11307A037071CF4121B212F01C020E03E2D3871A5
S11307B059F4D601322F60E2332319F06D9331508E
S11307C0FBCFC20ED11C20E0FF2331F0D6019C9355
S11307D0B6016F5F7F4F6B01E1110BC0F601922FE1
S11307E030E3992319F031939150FBCFC20ED11C01
S11307F020E09F2D940F3A81782F7071A72E84FFEB
S113080003C0313309F49150191624F4993018F0C7
S113081098E001C091E0E42F852F57FF02C0E0E08B
S113082080E06E2F782FE0E0F0E0AEE29A2E3A01FD
S1130830691A71082A01461A570A0B2D10E01195FE
S1130840019511096F3F8FEF780729F4D6019C9227
S1130850C60101966C014617570784F066167706A1
S11308606CF47F01E40CF51CA1E0B0E0AC0FBD1FFB
S1130870EA0EFB1ED7011196BC9002C090E3B92E7C
S1130880615071093196C60101967C0160177107A8
S113089024F0D601BC926C01D5CF6417750741F4DE
S11308A0363320F4353321F4A11002C081E3B82E8D
S11308B0F601B082F701822F90E2882319F0919318
S11308C08150FBCFF701E20FF11D108280E090E030
S11308D02996CDBFDEBFDF91CF911F910F91FF907D
S11308E0EF90DF90CF90BF90AF909F907F906F90EC
S11308F05F904F900895283008F027E03327DA01FD
S1130900990F311D87FD916000966105710539F4D9
S113091032602E5F3D9330E32A95E1F708959F3FBF
S113092030F080387105610509F03C5F3C5F3D9310
S1130930913008F08068911DDF93CF931F930F933C
S1130940FF92EF92192F987F9695E92F9695969599
S1130950E90FFF27EE51FE4F99273327EE24FF249A
S1130960A701E70105900894079428F4360FE71EC1
S1130970F81E491F511D660F771F881F991F069483
S1130980A1F70590079428F4E70EF81E491F561F97
S1130990C11D770F881F991F661F0694A1F7059044
S11309A0079428F4F80E491F561FC71FD11D880F3E
S11309B0991F661F771F0694A1F70590079420F4EA
S11309C0490F561FC71FD81F990F661F771F881F0F
S11309D00694A9F784911095177041F0D695C795A0
S11309E057954795F794E7941A95C1F7E8E8F1E02D
S11309F068941590159135916591959105907FE2D4
S1130A007395E118F10A430B560BC90BD009C0F7D3
S1130A10E10CF11E431F561FC91FD01D7EF4703315
S1130A2011F48A95E6CFE894015030F0080F0AF4E7
S1130A300027021708F4202F2395022F7A3328F079
S1130A4079E37D932A95E9F710C07D932A9589F679
S1130A50069497956795379517951794E118F10AB9
S1130A60430B560BC90BD00998F023957E917395CF
S1130A707A3308F070E37C932013B8F77E917061A9
S1130A807D9330F0839571E37D9370E32A95E1F7CC
S1130A901124EF90FF900F911F91CF91DF9199272F
S10D0AA087FD90950895F894FFCFA8
S1130AAA000004021F02040000000E0A1F1B1F1F7D
S1130ABA000000000A15110A040000000A0A0A00CC
S1130ACA110E00001617050219090E0700070F0E6A
S1130ADA1614161008001C1F0C0A0A010D06000D34
S1110AEA17140813120C1C000102000308006C
S9030000FC
