S0140000736F6C6F5F6573636C61766F2E7372656307
S1130000FDC0000016C1000014C1000012C10000B0
S113001010C100000EC100000CC100000AC10000A4
S113002008C1000006C1000004C1000002C10000B4
S113003000C10000FEC00000FCC00000FAC00000C7
S1130040F8C00000F6C00000F4C00000F2C00000D8
S1130050F0C00000EEC00000ECC00000EAC00000E8
S1130060E8C00000E6C00000E4C00000E2C00000F8
S1130070E0C00000DEC00000DCC00000DAC0000008
S1130080D8C00000D6C00000D4C00000D2C0000018
S1130090D0C00000CEC00000CCC00000CAC0000028
S11300A0C8C00000C6C00000C4C00000C2C0000038
S11300B0C0C00000BEC00000BCC00000BAC0000048
S11300C0B8C00000B6C00000B4C00000B2C0000058
S11300D0B0C00000AEC00000ACC00000AAC0000068
S11300E0A8C00000A6C00000A4C00000A2C0000078
S11300F0A0C000009EC000009CC000009AC0000088
S113010098C0000096C0000094C0000092C0000097
S113011090C000008EC000008CC000008AC00000A7
S113012088C0000086C0000084C0000082C00000B7
S113013080C000007EC000007CC000007AC00000C7
S113014078C0000076C0000074C0000072C00000D7
S113015070C000006EC000006CC00000D5C000007C
S113016068C0000066C0000064C0000062C00000F7
S113017060C000005EC000005CC000005AC0000007
S113018058C0000056C0000054C0000052C0000017
S113019050C000004EC000004CC000004AC0000027
S11301A048C0000046C0000044C0000042C0000037
S11301B040C000003EC000003CC000003AC0000047
S11301C038C0000036C0000034C0000032C0000057
S11301D030C000002EC000002CC000002AC0000067
S11301E028C0000026C0000024C0000022C0000077
S11301F020C000001EC000001CC0000011241FBE4F
S1130200CFEFCDBFDFE2DEBF10E2A0E0B0E2ECE46E
S1130210F3E002C005900D92A030B107D9F720E2B7
S1130220A0E0B0E201C01D92A430B207E1F749D0CA
S11302308BC0E6CEEF920F93FC01608371834283FF
S11302405383211102C080E401C080E6082BDB0146
S11302500C93A081B1811196EC920280F381E02D80
S113026080E481830F91EF9008958FEF8093700065
S11302708093710080937200809373008093740064
S113028080937500809376008091510084FD0DC0A9
S11302909FB7F894E0E5F0E08AE08583808180618F
S11302A080839FBF818184FFFDCF64E080E490E080
S11302B001C008951BBEFC0128ED24BF608308958E
S11302C00895D3DFFDDFE0E6F6E080E4808380E19B
S11302D086836894EE24E1F800E020E040E656E0EE
S11302E060EC79E080E090E2A5DFE0EAF0E0828172
S11302F0836082837894E0E0F6E081E08183868302
S113030082E081838683FFCF1F920F920FB60F92F4
S113031011248F93EF93FF93E0910020F09101203B
S11303208381813621F481E08093050605C08236FD
S113033019F481E080930606FF91EF918F910F905D
S10F03400FBE0F901F901895F894FFCF8B
S9030000FC
