S01400006C696272657269612070776D2E7372656352
S1130000BBC00000C9C00000C7C00000C5C00000DC
S1130010C3C00000C1C00000BFC00000BDC00000DC
S1130020BBC00000B9C00000B7C00000B5C00000EC
S1130030B3C00000B1C00000E0C0000007C1000070
S11300402EC1000055C100007CC10000A3C1000006
S1130050CAC10000F1C1000018C200003FC2000084
S11300609BC0000099C0000097C0000095C000002C
S113007093C0000091C000008FC000008DC000003C
S11300808BC0000089C0000087C0000085C000004C
S113009083C0000081C000007FC000007DC000005C
S11300A07BC0000079C0000077C0000075C000006C
S11300B073C0000071C000006FC00000D2C3000014
S11300C0F9C3000020C4000047C400006EC400004F
S11300D095C4000061C000005FC000005DC0000066
S11300E05BC0000059C0000057C0000055C00000AC
S11300F053C0000051C000004FC000004DC00000BC
S11301004BC0000049C0000047C0000045C00000CB
S113011043C0000041C000003FC000003DC00000DB
S11301203BC0000039C0000037C0000035C00000EB
S113013033C00000FCC1000023C200004AC200001A
S113014071C2000098C20000BFC20000E6C20000F5
S11301500DC3000034C300005BC300001DC00000D9
S11301601BC0000019C0000017C0000015C000002B
S113017013C0000011C0000011241FBECFEFCDBF7B
S1130180DFE2DEBF20E2A0E0B0E201C01D92AD33A9
S1130190B207E1F742D69CC633CF8FEF809370004D
S11301A08093710080937200809373008093740035
S11301B08093750080937600E0E5F0E0818184FD12
S11301C00BC08FB7F89490E19583908190619083F0
S11301D08FBF818184FFFDCF64E080E490E008C696
S11301E008959FB7F894E82FF0E0E059FF4F609529
S11301F08081682360839FBF08951F920F920FB67A
S11302000F9211242F933F934F935F936F937F9398
S11302108F939F93AF93BF93EF93FF93E09132201B
S1130220F0913320309709F00995FF91EF91BF9138
S1130230AF919F918F917F916F915F914F913F917A
S11302402F910F900FBE0F901F9018951F920F9231
S11302500FB60F9211242F933F934F935F936F9395
S11302607F938F939F93AF93BF93EF93FF93E0910B
S11302703020F0913120309709F00995FF91EF91EA
S1130280BF91AF919F918F917F916F915F914F91AA
S11302903F912F910F900FBE0F901F9018951F92B2
S11302A00F920FB60F9211242F933F934F935F93A6
S11302B06F937F938F939F93AF93BF93EF93FF932A
S11302C0E0912E20F0912F20309709F00995FF91AD
S11302D0EF91BF91AF919F918F917F916F915F91BA
S11302E04F913F912F910F900FBE0F901F90189533
S11302F01F920F920FB60F9211242F933F934F9397
S11303005F936F937F938F939F93AF93BF93EF9379
S1130310FF93E0912C20F0912D20309709F009955E
S1130320FF91EF91BF91AF919F918F917F916F91C9
S11303305F914F913F912F910F900FBE0F901F909F
S113034018951F920F920FB60F9211242F933F937B
S11303504F935F936F937F938F939F93AF93BF93C9
S1130360EF93FF93E0912A20F0912B20309709F02E
S11303700995FF91EF91BF91AF919F918F917F91DB
S11303806F915F914F913F912F910F900FBE0F90FE
S11303901F9018951F920F920FB60F9211242F934E
S11303A03F934F935F936F937F938F939F93AF93F9
S11303B0BF93EF93FF93E0912820F0912920309789
S11303C009F00995FF91EF91BF91AF919F918F91A2
S11303D07F916F915F914F913F912F910F900FBE3D
S11303E00F901F9018951F920F920FB60F92112421
S11303F02F933F934F935F936F937F938F939F9329
S1130400AF93BF93EF93FF93E0912620F0912720C1
S1130410309709F00995FF91EF91BF91AF919F91AA
S11304208F917F916F915F914F913F912F910F9099
S11304300FBE0F901F9018951F920F920FB60F9238
S113044011242F933F934F935F936F937F938F93D5
S11304509F93AF93BF93EF93FF93E0912420F09188
S11304602520309709F00995FF91EF91BF91AF9145
S11304709F918F917F916F915F914F913F912F91B8
S11304800F900FBE0F901F9018951F920F920FB6EA
S11304900F9211242F933F934F935F936F937F9306
S11304A08F939F93AF93BF93EF93FF93E091222099
S11304B0F0912320309709F00995FF91EF91BF91B6
S11304C0AF919F918F917F916F915F914F913F91E8
S11304D02F910F900FBE0F901F9018951F920F929F
S11304E00FB60F9211242F933F934F935F936F9303
S11304F07F938F939F93AF93BF93EF93FF93E09179
S11305002020F0912120309709F00995FF91EF9177
S1130510BF91AF919F918F917F916F915F914F9117
S11305203F912F910F900FBE0F901F9018951F921F
S11305300F920FB60F9211242F933F934F935F9313
S11305406F937F938F939F93AF93BF93EF93FF9397
S1130550E0911E20F0911F20309709F00995FF913A
S1130560EF91BF91AF919F918F917F916F915F9127
S11305704F913F912F910F900FBE0F901F901895A0
S11305801F920F920FB60F9211242F933F934F9304
S11305905F936F937F938F939F93AF93BF93EF93E7
S11305A0FF93E0911C20F0911D20309709F00995EC
S11305B0FF91EF91BF91AF919F918F917F916F9137
S11305C05F914F913F912F910F900FBE0F901F900D
S11305D018951F920F920FB60F9211242F933F93E9
S11305E04F935F936F937F938F939F93AF93BF9337
S11305F0EF93FF93E0911A20F0911B20309709F0BC
S11306000995FF91EF91BF91AF919F918F917F9148
S11306106F915F914F913F912F910F900FBE0F906B
S11306201F9018951F920F920FB60F9211242F93BB
S11306303F934F935F936F937F938F939F93AF9366
S1130640BF93EF93FF93E0911820F0911920309716
S113065009F00995FF91EF91BF91AF919F918F910F
S11306607F916F915F914F913F912F910F900FBEAA
S11306700F901F9018951F920F920FB60F9211248E
S11306802F933F934F935F936F937F938F939F9396
S1130690AF93BF93EF93FF93E0911620F09117204F
S11306A0309709F00995FF91EF91BF91AF919F9118
S11306B08F917F916F915F914F913F912F910F9007
S11306C00FBE0F901F9018951F920F920FB60F92A6
S11306D011242F933F934F935F936F937F938F9343
S11306E09F93AF93BF93EF93FF93E0911420F09106
S11306F01520309709F00995FF91EF91BF91AF91C3
S11307009F918F917F916F915F914F913F912F9125
S11307100F900FBE0F901F9018951F920F920FB657
S11307200F9211242F933F934F935F936F937F9373
S11307308F939F93AF93BF93EF93FF93E091122016
S1130740F0911320309709F00995FF91EF91BF9133
S1130750AF919F918F917F916F915F914F913F9155
S11307602F910F900FBE0F901F9018951F920F920C
S11307700FB60F9211242F933F934F935F936F9370
S11307807F938F939F93AF93BF93EF93FF93E091E6
S11307901020F0911120309709F00995FF91EF9105
S11307A0BF91AF919F918F917F916F915F914F9185
S11307B03F912F910F900FBE0F901F9018951F928D
S11307C00F920FB60F9211242F933F934F935F9381
S11307D06F937F938F939F93AF93BF93EF93FF9305
S11307E0E0910E20F0910F20309709F00995FF91C8
S11307F0EF91BF91AF919F918F917F916F915F9195
S11308004F913F912F910F900FBE0F901F9018950D
S11308101F920F920FB60F9211242F933F934F9371
S11308205F936F937F938F939F93AF93BF93EF9354
S1130830FF93E0910C20F0910D20309709F0099579
S1130840FF91EF91BF91AF919F918F917F916F91A4
S11308505F914F913F912F910F900FBE0F901F907A
S113086018951F920F920FB60F9211242F933F9356
S11308704F935F936F937F938F939F93AF93BF93A4
S1130880EF93FF93E0910A20F0910B20309709F049
S11308900995FF91EF91BF91AF919F918F917F91B6
S11308A06F915F914F913F912F910F900FBE0F90D9
S11308B01F9018951F920F920FB60F9211242F9329
S11308C03F934F935F936F937F938F939F93AF93D4
S11308D0BF93EF93FF93E0910820F09109203097A4
S11308E009F00995FF91EF91BF91AF919F918F917D
S11308F07F916F915F914F913F912F910F900FBE18
S11309000F901F9018951F920F920FB60F921124FB
S11309102F933F934F935F936F937F938F939F9303
S1130920AF93BF93EF93FF93E0910620F0910720DC
S1130930309709F00995FF91EF91BF91AF919F9185
S11309408F917F916F915F914F913F912F910F9074
S11309500FBE0F901F9018951F920F920FB60F9213
S113096011242F933F934F935F936F937F938F93B0
S11309709F93AF93BF93EF93FF93E0910420F09183
S11309800520309709F00995FF91EF91BF91AF9140
S11309909F918F917F916F915F914F913F912F9193
S11309A00F900FBE0F901F9018951F920F920FB6C5
S11309B00F9211242F933F934F935F936F937F93E1
S11309C08F939F93AF93BF93EF93FF93E091022094
S11309D0F0910320309709F00995FF91EF91BF91B1
S11309E0AF919F918F917F916F915F914F913F91C3
S11309F02F910F900FBE0F901F9018951F920F927A
S1130A000FB60F9211242F933F934F935F936F93DD
S1130A107F938F939F93AF93BF93EF93FF93E09153
S1130A200020F0910120309709F00995FF91EF9192
S1130A30BF91AF919F918F917F916F915F914F91F2
S1130A403F912F910F900FBE0F901F901895CF9349
S1130A50CFB7F894282F392F211588E0380739F4B7
S1130A6061E083E0BEDB64E083E0BBDB2DC02034C7
S1130A7088E0380739F462E083E0B3DB64E083E0C4
S1130A80B0DB22C0211589E0380739F461E084E045
S1130A90A8DB64E084E0A5DB17C0203489E03807D4
S1130AA039F462E084E09DDB64E084E09ADB0CC00E
S1130AB021153A4039F461E085E093DB64E085E098
S1130AC090DB02C0CFBF01C0CFBFCF910895811585
S1130AD028E0920729F4609332207093332008951C
S1130AE0803428E0920729F460932620709327200D
S1130AF00895811529E0920729F460931E207093CC
S1130B001F200895803429E0920729F4609312206D
S1130B1070931320089581159A4021F460930A205C
S1130B2070930B200895CF92DF92EF92FF92CF93B0
S1130B30DF93EC016B01E12CF12C60E078E488EEAA
S1130B4091E0A701960193D1CA01B9012FEF3FEFBC
S1130B5040E050E08CD12115310529F481E08C83EB
S1130B6021E030E02DC02230310528F482E08C836E
S1130B7022E030E025C02430310528F483E08C8362
S1130B8024E030E01DC02830310528F484E08C8353
S1130B9028E030E015C02034310528F485E08C834A
S1130BA020E430E00DC02F3F310509F028F486E041
S1130BB08C8320E031E004C087E08C8320E034E0C3
S1130BC040E050E060E078E488EE91E050D1CA0162
S1130BD0B901A70196014BD12D833E8324363105FB
S1130BE018F41C821D821E82DF91CF91FF90EF903A
S1130BF0DF90CF9008950F931F93CF93DF93EC0171
S1130C0089016230B9F128F4662351F06130E9F0CA
S1130C106FC0633009F443C0643009F455C068C040
S1130C2080E098E088839983E0E4F6E0508121E055
S1130C3030E08FEF840FB90102C0660F771F8A95E9
S1130C40E2F7CB01852B808353C080E498E088834E
S1130C509983E0E4F6E0508121E030E083E0840F02
S1130C60B90102C0660F771F8A95E2F7CB01852B85
S1130C7080833EC080E099E088839983E0E6F6E0D3
S1130C80508121E030E08FEF840FB90102C0660F7C
S1130C90771F8A95E2F7CB01852B808329C080E4F6
S1130CA099E088839983E0E6F6E0508121E030E022
S1130CB083E0840FB90102C0660F771F8A95E2F7BB
S1130CC0CB01852B808314C080E09AE088839983CC
S1130CD0E0E8F6E0508121E030E08FEF840FB901C5
S1130CE002C0660F771F8A95E2F7CB01852B8083BC
S1130CF04A83423061F018F4413031F010C043307F
S1130D0049F0443051F00BC080E18B8308C080E28D
S1130D108B8305C080E48B8302C080E88B83888149
S1130D20998195DEE881F9818181887F836081835F
S1130D301D821E821C82E881F9818081807F8083EC
S1130D40B801CE01F0DEDF91CF911F910F9108958C
S1130D50CF93DF93EC01AD81BE81262F30E0A9D083
S1130D6024E630E040E050E082D08A81E881F981D5
S1130D70E6FD17C0823061F018F4813031F01BC0F9
S1130D80833049F0843051F016C020AF31AF13C026
S1130D9022AF33AF10C024AF35AF0DC026AF37AF8D
S1130DA00AC0813019F0823021F005C020AF31AF84
S1130DB002C022AF33AF8D819E81E881F98186A381
S1130DC097A38B81E881F981E6FD04C09181892B89
S1130DD0818304C091818073892B8183E881F981A7
S1130DE08081807F9C81892B8083DF91CF910895BE
S1130DF01BBEFC0128ED24BF60830895E0E4F6E007
S1130E0081E0818392E09183E0EEF7E081830895AD
S1130E1082E0E0E4F6E087830895F0DFBED987E05E
S1130E20E0EAF0E0828378942CE330E041E060E093
S1130E3086E390E2E0DEE0913620F091372086816F
S1130E408C7F868386818160868368E077E0CF012A
S1130E503EDE65E086E390E27BDFA0E4B6E0E0EE10
S1130E60F7E018968C91189781708483FACFA1E2E9
S1130E701A2EAA1BBB1BFD010DC0AA1FBB1FEE1F10
S1130E80FF1FA217B307E407F50720F0A21BB30B5B
S1130E90E40BF50B661F771F881F991F1A9469F7D7
S1130EA060957095809590959B01AC01BD01CF0133
S1130EB00895A29FB001B39FC001A39F700D811D2F
S1130EC01124911DB29F700D811D1124911D08954F
S1070ED0F894FFCFC0
S9030000FC
