S014000074656D705F696E7465726E612E737265630A
S1130000BBC00000D4C00000D2C00000D0C00000BB
S1130010CEC00000CCC00000CAC00000C8C00000B0
S1130020C6C00000C4C00000C2C00000C0C00000C0
S1130030BEC00000BCC00000BAC00000B8C00000D0
S1130040B6C00000B4C00000B2C00000B0C00000E0
S1130050AEC00000ACC00000AAC00000A8C00000F0
S1130060A6C00000A4C00000A2C00000A0C0000000
S11300709EC000009CC000009AC0000098C0000010
S113008096C0000094C0000092C0000090C0000020
S11300908EC000008CC000008AC0000088C0000030
S11300A086C0000084C0000082C0000080C0000040
S11300B07EC000007CC000007AC0000078C0000050
S11300C076C0000074C0000072C0000070C0000060
S11300D06EC000006CC000006AC0000068C0000070
S11300E066C0000064C0000062C0000060C0000080
S11300F05EC000005CC000005AC0000058C0000090
S113010056C0000054C0000052C0000050C000009F
S11301104EC000004CC000004AC00000C4C0000033
S1130120F0C000001CC1000048C1000040C0000035
S11301303EC000003CC000003AC0000038C00000CF
S113014036C0000034C0000032C0000030C00000DF
S11301502EC000002CC000002AC0000028C00000EF
S113016026C0000024C0000022C0000020C00000FF
S11301701EC000001CC0000011241FBECFEFCDBF65
S1130180DFE2DEBF10E2A0E0B0E2E0E8FBE002C0A4
S113019005900D92A830B107D9F720E2A8E0B0E2AB
S11301A001C01D92A531B207E1F72FD4E7C428CFCF
S11301B0E0E6F6E088E08183858384E082838683B9
S11301C0E0E4F6E081E081838683E0E0F6E0828388
S11301D0E0EEF7E08183858308958FEF80937000CC
S11301E080937100809372008093730080937400F5
S11301F0809375008093760008959FB7F894E82F54
S1130200F0E0E059FF4F60958081682360839FBFD1
S113021008959FB7F894E82FF0E0E059FF4F8081EC
S1130220682B60839FBF08952FB7F894811592407F
S113023021F460931320709314202FBF0895811527
S1130240924059F48091082091E0980F90930820EF
S1130250811103C062E081E0D0CF089581159240FE
S113026051F480910820815080930820811103C0AB
S113027062E081E0CECF08951F93CF93DF93EC012A
S11302801FB7F894DCDF8881816088831FBF8FB734
S1130290F894EEE0F0E290819F5F90838FBFDF914E
S11302A0CF911F9108951F920F920FB60F921124B0
S11302B02F933F934F935F936F937F938F939F936A
S11302C0AF93BF93EF93FF93E0E0F2E044A155A115
S11302D0E0911320F091142061E080E092E0099510
S11302E0FF91EF91BF91AF919F918F917F916F910A
S11302F05F914F913F912F910F900FBE0F901F90E0
S113030018951F920F920FB60F9211242F933F93BB
S11303104F935F936F937F938F939F93AF93BF9309
S1130320EF93FF93E8E2F2E044815581E0911320DA
S1130330F091142062E080E092E00995FF91EF9142
S1130340BF91AF919F918F917F916F915F914F91E9
S11303503F912F910F900FBE0F901F9018951F92F1
S11303600F920FB60F9211242F933F934F935F93E5
S11303706F937F938F939F93AF93BF93EF93FF9369
S1130380E0E3F2E044815581E0911320F0911420E0
S113039064E080E092E00995FF91EF91BF91AF9105
S11303A09F918F917F916F915F914F913F912F9189
S11303B00F900FBE0F901F9018951F920F920FB6BB
S11303C00F9211242F933F934F935F936F937F93D7
S11303D08F939F93AF93BF93EF93FF93E8E3F2E080
S11303E044815581E0911320F091142068E080E06D
S11303F092E00995FF91EF91BF91AF919F918F91F9
S11304007F916F915F914F913F912F910F900FBE0C
S11304100F901F901895DF92EF92FF920F931F9306
S1130420CF93DF93EC018B01C11582E0D80759F516
S113043061E270E082E0C5D0E82EF12C60E270E069
S113044082E0BFD0FE2CEE24E82ADFB6F894CE0179
S1130450F6DE288182E08883EC86FD86F8018581BA
S11304609681888F998F82818A8384818C8383810A
S11304708B8381818983822F81709081892B8883EA
S1130480CE01ECDEDFBEDF91CF911F910F91FF9083
S1130490EF90DF900895FF920F931F93CF93DF9314
S11304A0EC018B01FFB6F894CADE8881807CF801E8
S11304B08083888D998D858396838A8182838C81BC
S11304C084838B81838389818183CE01C7DEFFBED0
S11304D0DF91CF911F910F91FF900895CF92DF92FA
S11304E0EF92FF920F931F93CF93DF937C01D62E4D
S11304F08A01862F837029F4962F9695969582E02B
S113050002C0962F80E090FF8F5FE701A09698E0ED
S1130510899FC00DD11D1124CFB6F894C7018FDE79
S1130520F8018081888382818A8381818983D0FED6
S113053002C083818E83C70191DECFBEDF91CF914C
S11305401F910F91FF90EF90DF90CF900895CF927D
S1130550DF92EF92FF920F931F93CF93DF937C016F
S1130560D62EEA01862F837029F4962F96959695B8
S113057082E002C0962F80E090FF8F5F8701005ECB
S11305801F4F98E0899F000D111D1124CFB6F894D8
S1130590C70155DEF8018081888382818A83818145
S11305A08983D0FE02C086818B83C70157DECFBE0C
S11305B0DF91CF911F910F91FF90EF90DF90CF903B
S11305C008954091CA01E62FF72F8093CA018491C0
S11305D04093CA010895FC01818185FFFDCF6083AA
S11305E080E090E008954F925F926F927F928F9295
S11305F09F92AF92BF92CF92DF92EF92FF920F93AE
S11306001F93CF93DF93EC014A015B012801390169
S1130610D901C801689412F8B695A795979587955E
S11306201694D1F7B901A801032E36E176956795A2
S1130630579547953A95D1F7302D2C8122FD08C066
S1130640B695A79597958795769567955795479508
S113065088159905AA05BB0508F4A2C08416950659
S1130660A606B70608F49EC08C8182FD04C0880CDF
S1130670991CAA1CBB1CC301B201A50194014DD253
S11306802F3F31054105510508F48EC0C12CD12CF2
S11306907601CA9419EF05C02C153D054E055F057A
S11306A068F0CC0CDD1CEE1CFF1C1D3F14F4689498
S11306B0C0F81F5F173081F7212F4EC0212F11235F
S11306C00CF04AC0D501C401880F991FAA1FBB1F93
S11306D0880F991FAA1FBB1F880F991FAA1FBB1F32
S11306E0481A590A6A0A7B0A1E3FECF46DEF7FEF41
S11306F0611B710917FD739504C0440C551C661CDD
S1130700771C6A95D2F7D501C401B695A79597953C
S11307108795BC01CD01640D751D861D971DA5012E
S11307209401FBD134C023E0210FD501C40104C0DE
S1130730880F991FAA1FBB1F2A95D2F79C01AD01F0
S1130740B695A79597958795BC01CD01640D751D48
S1130750861D971DE2D11BC02D5FD501C40104C0C5
S1130760880F991FAA1FBB1F2A95D2F79C01AD01C0
S1130770B695A79597958795BC01CD01640D751D18
S1130780861D971DCAD12150310941095109832F72
S11307908F701295107F182B1F832E8381E018C051
S11307A080E016C080E014C0D501C401880F991FF1
S11307B0AA1FBB1F880F991FAA1FBB1F880F991F51
S11307C0AA1FBB1F481A590A6A0A7B0A19EF8ECF5F
S11307D0DF91CF911F910F91FF90EF90DF90CF9019
S11307E0BF90AF909F908F907F906F905F904F904D
S11307F008950F931F93CF93DF93EC018B01009720
S113080009F4BEC0803C910521F460E180E0F5DC90
S1130810B7C0C11584E0D80721F464E080E0EDDCC2
S1130820AFC0C038E1E0DE0721F462E080E0E5DC3F
S1130830A7C0C115F1E0DF0721F461E080E0DDDC51
S11308409FC0C03883E0D80721F461E081E0D5DCA3
S113085097C0C115E2E0DE0721F462E081E0CDDC5F
S11308608FC0C032F3E0DF0721F464E082E0C5DC2E
S113087087C0C11588E0D80721F461E083E0BDDCBE
S11308807FC0C115E9E0DE0721F461E084E0B5DC56
S113089077C0C115FAE0DF0721F461E085E0ADDC43
S11308A06FC0C03488E0D80721F462E083E0A5DC9F
S11308B067C0C034E9E0DE0721F462E084E09DDC37
S11308C05FC0C039F8E0DF0721F464E083E095DC21
S11308D057C0C03989E0D80721F464E084E08DDC96
S11308E04FC0C039EAE0DE0721F464E085E085DC2E
S11308F047C0C03CF8E0DF0721F468E083E07DDC1A
S11309003FC0C03C89E0D80721F468E084E075DC8E
S113091037C0C03AE8E0DE0721F460E183E06DDC33
S11309202FC0C03AF9E0DF0721F460E184E065DC20
S113093027C0C03A8AE0D80721F460E185E05DDC95
S11309401FC0C03BE8E0DE0721F460E283E055DC31
S113095017C0C03BF9E0DF0721F460E284E04DDC1E
S11309600FC0C03884E0D80721F460E483E045DC9C
S113097007C0C03AE4E0DE0719F460E485E03DDC3A
S11309808D818F738D83F80194818581892B968164
S1130990992311F098E001C090E0892B8D83F80130
S11309A0408151816281738100E814E82EE130E0D6
S11309B0CE0119DE9C8198609C839C8190619C830C
S11309C0DF91CF911F910F9108951F93CF93DF93E0
S11309D0EC01162F9A01A6E6B1E0C1D020910B20BC
S11309E030910C2040E050E098D0209309203093BF
S11309F00A208FB7F8949881110F110F192B1883BF
S1130A008FBFDF91CF911F910895CF93DF93CDB71F
S1130A10DEB72B97CDBFDEBFCBDBDFDB10920D2023
S1130A2010920E2010920F2010921020109211207C
S1130A3081E08093122087E0E0EAF0E082837894FA
S1130A40BE016F5F7F4F80E092E025DDAE01485F1D
S1130A505F4F61E080E092E07ADD9A818B818F7C48
S1130A6022E02D83917E9A831C8281608B83BE0158
S1130A706F5F7F4F80E092E0CEDC65EE74E080E053
S1130A8092E0D2DB188619868A85807F81608A8706
S1130A90AE01485F5F4F61E080E092E01FDD6FE2EE
S1130AA070E082E08EDD082F10E0102F00276EE248
S1130AB070E082E086DD082B00930B2010930C205D
S1130AC080E092E0D9DB8FB7F894E0E0F2E0908127
S1130AD0946090838FBF60E184E08FDB60E070E21C
S1130AE080EA99E086DE6091092070910A2080EA0C
S1130AF099E071DD6AE080EA99E06DDD6AE480EAFC
S1130B0099E069DD6AE080EA99E065DD87E893E1D0
S1130B100197F1F700C00000E6CFA1E21A2EAA1B4C
S1130B20BB1BFD010DC0AA1FBB1FEE1FFF1FA21799
S1130B30B307E407F50720F0A21BB30BE40BF50B96
S1130B40661F771F881F991F1A9469F7609570951F
S1130B50809590959B01AC01BD01CF010895A29FA2
S1130B60B001B39FC001A39F700D811D1124911D7D
S1130B70B29F700D811D1124911D0895F894FFCF2B
S10B0B808025000003000000C1
S9030000FC
