S0130000736F6C6F5F6D61737465722E7372656369
S1130000FDC0000016C1000014C1000012C10000B0
S113001010C100000EC100000CC100000AC10000A4
S113002008C1000006C1000004C1000002C10000B4
S113003000C10000FEC0000022C1000049C1000050
S113004070C1000097C10000BEC10000E5C10000FE
S11300500CC2000033C200005AC2000081C200007A
S1130060E8C00000E6C00000E4C00000E2C00000F8
S1130070E0C00000DEC00000DCC00000DAC0000008
S1130080D8C00000D6C00000D4C00000D2C0000018
S1130090D0C00000CEC00000CCC00000CAC0000028
S11300A0C8C00000C6C00000C4C00000C2C0000038
S11300B0C0C00000BEC00000BCC0000014C40000EA
S11300C03BC4000062C4000089C40000B0C4000046
S11300D0D7C40000AEC00000ACC00000AAC000003D
S11300E0A8C00000A6C00000A4C00000A2C0000078
S11300F0A0C000009EC000009CC000009AC0000088
S113010098C0000096C0000094C0000092C0000097
S113011090C000008EC000008CC000008AC00000A7
S113012088C0000086C0000084C0000082C00000B7
S113013080C000003EC2000065C200008CC2000006
S1130140B3C20000DAC2000001C3000028C30000EB
S11301504FC3000076C300009DC300009EC500008D
S113016068C0000066C0000064C0000062C00000F7
S113017060C000005EC000005CC000005AC0000007
S113018058C0000056C0000054C0000052C0000017
S113019050C000004EC000004CC000004AC0000027
S11301A048C0000046C0000044C0000042C0000037
S11301B040C000003EC000003CC000003AC0000047
S11301C038C0000036C0000034C0000032C0000057
S11301D030C000002EC000002CC000002AC0000067
S11301E028C0000026C0000024C0000022C0000077
S11301F020C000001EC000001CC0000011241FBE4F
S1130200CFEFCDBFDFE2DEBF10E2A0E0B0E2E8EE68
S1130210FCE002C005900D92A430B107D9F720E2AA
S1130220A4E0B0E201C01D92AD34B207E1F7E5D419
S113023059C5E6CE8FEF8093700080937100809350
S11302407200809373008093740080937500809390
S113025076008091510084FD0DC09FB7F894E0E5CD
S1130260F0E088E185838081806180839FBF818104
S113027084FFFDCF64E080E490E02BC408951F92D6
S11302800F920FB60F9211242F933F934F935F93C6
S11302906F937F938F939F93AF93BF93EF93FF934A
S11302A0E0913620F0913720309709F00995FF91BD
S11302B0EF91BF91AF919F918F917F916F915F91DA
S11302C04F913F912F910F900FBE0F901F90189553
S11302D01F920F920FB60F9211242F933F934F93B7
S11302E05F936F937F938F939F93AF93BF93EF939A
S11302F0FF93E0913420F0913520309709F009956F
S1130300FF91EF91BF91AF919F918F917F916F91E9
S11303105F914F913F912F910F900FBE0F901F90BF
S113032018951F920F920FB60F9211242F933F939B
S11303304F935F936F937F938F939F93AF93BF93E9
S1130340EF93FF93E0913220F0913320309709F03E
S11303500995FF91EF91BF91AF919F918F917F91FB
S11303606F915F914F913F912F910F900FBE0F901E
S11303701F9018951F920F920FB60F9211242F936E
S11303803F934F935F936F937F938F939F93AF9319
S1130390BF93EF93FF93E0913020F0913120309799
S11303A009F00995FF91EF91BF91AF919F918F91C2
S11303B07F916F915F914F913F912F910F900FBE5D
S11303C00F901F9018951F920F920FB60F92112441
S11303D02F933F934F935F936F937F938F939F9349
S11303E0AF93BF93EF93FF93E0912E20F0912F20D2
S11303F0309709F00995FF91EF91BF91AF919F91CB
S11304008F917F916F915F914F913F912F910F90B9
S11304100FBE0F901F9018951F920F920FB60F9258
S113042011242F933F934F935F936F937F938F93F5
S11304309F93AF93BF93EF93FF93E0912C20F091A0
S11304402D20309709F00995FF91EF91BF91AF915D
S11304509F918F917F916F915F914F913F912F91D8
S11304600F900FBE0F901F9018951F920F920FB60A
S11304700F9211242F933F934F935F936F937F9326
S11304808F939F93AF93BF93EF93FF93E0912A20B1
S1130490F0912B20309709F00995FF91EF91BF91CE
S11304A0AF919F918F917F916F915F914F913F9108
S11304B02F910F900FBE0F901F9018951F920F92BF
S11304C00FB60F9211242F933F934F935F936F9323
S11304D07F938F939F93AF93BF93EF93FF93E09199
S11304E02820F0912920309709F00995FF91EF9188
S11304F0BF91AF919F918F917F916F915F914F9138
S11305003F912F910F900FBE0F901F9018951F923F
S11305100F920FB60F9211242F933F934F935F9333
S11305206F937F938F939F93AF93BF93EF93FF93B7
S1130530E0912620F0912720309709F00995FF914A
S1130540EF91BF91AF919F918F917F916F915F9147
S11305504F913F912F910F900FBE0F901F901895C0
S11305601F920F920FB60F9211242F933F934F9324
S11305705F936F937F938F939F93AF93BF93EF9307
S1130580FF93E0912420F0912520309709F00995FC
S1130590FF91EF91BF91AF919F918F917F916F9157
S11305A05F914F913F912F910F900FBE0F901F902D
S11305B018951F920F920FB60F9211242F933F9309
S11305C04F935F936F937F938F939F93AF93BF9357
S11305D0EF93FF93E0912220F0912320309709F0CC
S11305E00995FF91EF91BF91AF919F918F917F9169
S11305F06F915F914F913F912F910F900FBE0F908C
S11306001F9018951F920F920FB60F9211242F93DB
S11306103F934F935F936F937F938F939F93AF9386
S1130620BF93EF93FF93E0912020F0912120309726
S113063009F00995FF91EF91BF91AF919F918F912F
S11306407F916F915F914F913F912F910F900FBECA
S11306500F901F9018951F920F920FB60F921124AE
S11306602F933F934F935F936F937F938F939F93B6
S1130670AF93BF93EF93FF93E0911E20F0911F205F
S1130680309709F00995FF91EF91BF91AF919F9138
S11306908F917F916F915F914F913F912F910F9027
S11306A00FBE0F901F9018951F920F920FB60F92C6
S11306B011242F933F934F935F936F937F938F9363
S11306C09F93AF93BF93EF93FF93E0911C20F0911E
S11306D01D20309709F00995FF91EF91BF91AF91DB
S11306E09F918F917F916F915F914F913F912F9146
S11306F00F900FBE0F901F9018951F920F920FB678
S11307000F9211242F933F934F935F936F937F9393
S11307108F939F93AF93BF93EF93FF93E0911A202E
S1130720F0911B20309709F00995FF91EF91BF914B
S1130730AF919F918F917F916F915F914F913F9175
S11307402F910F900FBE0F901F9018951F920F922C
S11307500FB60F9211242F933F934F935F936F9390
S11307607F938F939F93AF93BF93EF93FF93E09106
S11307701820F0911920309709F00995FF91EF9115
S1130780BF91AF919F918F917F916F915F914F91A5
S11307903F912F910F900FBE0F901F9018951F92AD
S11307A00F920FB60F9211242F933F934F935F93A1
S11307B06F937F938F939F93AF93BF93EF93FF9325
S11307C0E0911620F0911720309709F00995FF91D8
S11307D0EF91BF91AF919F918F917F916F915F91B5
S11307E04F913F912F910F900FBE0F901F9018952E
S11307F01F920F920FB60F9211242F933F934F9392
S11308005F936F937F938F939F93AF93BF93EF9374
S1130810FF93E0911420F0911520309709F0099589
S1130820FF91EF91BF91AF919F918F917F916F91C4
S11308305F914F913F912F910F900FBE0F901F909A
S113084018951F920F920FB60F9211242F933F9376
S11308504F935F936F937F938F939F93AF93BF93C4
S1130860EF93FF93E0911220F0911320309709F059
S11308700995FF91EF91BF91AF919F918F917F91D6
S11308806F915F914F913F912F910F900FBE0F90F9
S11308901F9018951F920F920FB60F9211242F9349
S11308A03F934F935F936F937F938F939F93AF93F4
S11308B0BF93EF93FF93E0911020F09111203097B4
S11308C009F00995FF91EF91BF91AF919F918F919D
S11308D07F916F915F914F913F912F910F900FBE38
S11308E00F901F9018951F920F920FB60F9211241C
S11308F02F933F934F935F936F937F938F939F9324
S1130900AF93BF93EF93FF93E0910E20F0910F20EC
S1130910309709F00995FF91EF91BF91AF919F91A5
S11309208F917F916F915F914F913F912F910F9094
S11309300FBE0F901F9018951F920F920FB60F9233
S113094011242F933F934F935F936F937F938F93D0
S11309509F93AF93BF93EF93FF93E0910C20F0919B
S11309600D20309709F00995FF91EF91BF91AF9158
S11309709F918F917F916F915F914F913F912F91B3
S11309800F900FBE0F901F9018951F920F920FB6E5
S11309900F9211242F933F934F935F936F937F9301
S11309A08F939F93AF93BF93EF93FF93E0910A20AC
S11309B0F0910B20309709F00995FF91EF91BF91C9
S11309C0AF919F918F917F916F915F914F913F91E3
S11309D02F910F900FBE0F901F9018951F920F929A
S11309E00FB60F9211242F933F934F935F936F93FE
S11309F07F938F939F93AF93BF93EF93FF93E09174
S1130A000820F0910920309709F00995FF91EF91A2
S1130A10BF91AF919F918F917F916F915F914F9112
S1130A203F912F910F900FBE0F901F9018951F921A
S1130A300F920FB60F9211242F933F934F935F930E
S1130A406F937F938F939F93AF93BF93EF93FF9392
S1130A50E0910620F0910720309709F00995FF9165
S1130A60EF91BF91AF919F918F917F916F915F9122
S1130A704F913F912F910F900FBE0F901F9018959B
S1130A801F920F920FB60F9211242F933F934F93FF
S1130A905F936F937F938F939F93AF93BF93EF93E2
S1130AA0FF93E0910420F0910520309709F0099517
S1130AB0FF91EF91BF91AF919F918F917F916F9132
S1130AC05F914F913F912F910F900FBE0F901F9008
S1130AD018951BBEFC0128ED24BF60830895AF92D6
S1130AE0CF92EF920F93FC01902F60837183428326
S1130AF053831482C11002C080E001C080E80A2D33
S1130B000064082B211102C080E001C080E29061E2
S1130B10A02EA82A092F0A29DB010C93A081B181F8
S1130B201196EC92158216820280F381E02D80EA00
S1130B3081830F91EF90CF90AF900895EF920F9330
S1130B401F93FC0100831183E282638374834583D2
S1130B5056832783108611861F910F91EF90089575
S1130B60CF93DF93FC01A581B68118968C911897D9
S1130B70C081D181988194FD03C091E0948329C000
S1130B809B8115960D90BC91A02DA80FB11D9C932F
S1130B908F5FA581B68117969C911797891760F48A
S1130BA013960D90BC91A02DA80FB11D9C91A0810E
S1130BB0B18113969C930DC012969C9112970D903F
S1130BC0BC91A02D15969C93A581B68191E01996B0
S1130BD09C930580F681E02D8087DF91CF91089565
S1130BE0DC01ED91FC9111976383ED91FC9182817D
S1130BF08823ECF78381089508951CDBFDDFE0E68C
S1130C00F6E080E18283C8E1C48B80E48283818141
S1130C10806A818380E2858380E88583A12CC12C4E
S1130C20EE24E39400E020E040E656E060EC79E056
S1130C308CE390E254DFE0EAF0E082818360828317
S1130C4078946894EE24E4F800E616E023E049E39F
S1130C5050E260E070E283E490E270DFE0E0F6E00E
S1130C6081E08283C08B82E0818386832FEF89EBCE
S1130C709BED215080409040E1F700C00000C0E0AF
S1130C80D6E012E0888580FD06C01D8361E68CE312
S1130C9090E2A6DFF7CF1E83F5CF1F920F920FB617
S1130CA00F9211242F933F934F935F936F937F93EE
S1130CB08F939F93AF93BF93EF93FF938CE390E253
S1130CC04FDFFF91EF91BF91AF919F918F917F91F2
S1130CD06F915F914F913F912F910F900FBE0F90A5
S10B0CE01F901895F894FFCF52
S1070CE869786600BD
S9030000FC
