S019000073657269616C20636F6D5F72785F696E742E7372656339
S1130000BBC00000D4C00000D2C00000D0C00000BB
S1130010CEC00000CCC00000CAC00000C8C00000B0
S1130020C6C00000C4C00000C2C00000C0C00000C0
S1130030BEC00000BCC00000BAC00000B8C00000D0
S1130040B6C00000B4C00000B2C00000B0C00000E0
S1130050AEC00000ACC00000AAC00000A8C00000F0
S1130060A6C00000A4C00000A2C00000A0C0000000
S11300709EC000009CC000009AC0000098C0000010
S113008096C0000094C0000092C0000090C0000020
S11300908EC000008CC000008AC0000088C0000030
S11300A086C0000084C0000082C0000080C0000040
S11300B07EC000007CC000007AC0000078C0000050
S11300C076C0000074C0000072C0000070C0000060
S11300D06EC000006CC000006AC0000068C0000070
S11300E066C0000064C0000062C0000060C0000080
S11300F05EC000005CC000005AC0000058C0000090
S113010056C0000054C0000052C0000050C000009F
S11301104EC000004CC000004AC0000048C00000AF
S113012046C0000044C0000042C0000040C00000BF
S11301303EC000003CC000003AC0000038C00000CF
S113014036C0000034C0000032C0000030C00000DF
S11301502EC000002CC000002AC0000028C00000EF
S113016081C2000024C0000022C0000020C00000A2
S11301701EC000001CC0000011241FBECFEFCDBF65
S1130180DFE2DEBF10E2A0E0B0E2ECE6F7E002C09E
S113019005900D92AA33B107D9F720E2AAE3B0E2A1
S11301A001C01D92AC33B207E1F78ED2DDC228CF75
S11301B0E0E6F6E088E08583818384E086838283B9
S11301C0E0EEF7E081E08183858308958FEF8093EB
S11301D07000809371008093720080937300809309
S11301E074008093750080937600E0E5F0E08181EF
S11301F084FD19C0818181FD09C08FB7F894908175
S1130200926090838FBF818181FFFDCF8FB7F89477
S1130210E0E5F0E093E895839081906190838FBF4F
S1130220818184FFFDCF64E080E490E015D08FB736
S1130230F894E0E5F0E090819E7F90838FBF08956D
S11302409FB7F894E82FF0E0E059FF4F6095808164
S1130250682360839FBF08951BBEFC0128ED24BF63
S113026060830895FC01818185FFFDCF608380E078
S113027090E00895FC0181818823ECF78081089542
S11302804F925F926F927F928F929F92AF92BF92A2
S1130290CF92DF92EF92FF920F931F93CF93DF934E
S11302A0EC014A015B0128013901D901C8016894B4
S11302B012F8B695A795979587951694D1F7B90135
S11302C0A801032E36E176956795579547953A959B
S11302D0D1F7302D2C8122FD08C0B695A7959795AE
S11302E08795769567955795479588159905AA0535
S11302F0BB0508F4A2C084169506A606B70608F442
S11303009EC08C8182FD04C0880C991CAA1CBB1C55
S1130310C301B201A501940105D22F3F3105410566
S1130320510508F48EC0C12CD12C7601CA9419EF62
S113033005C02C153D054E055F0568F0CC0CDD1C91
S1130340EE1CFF1C1D3F14F46894C0F81F5F1730A7
S113035081F7212F4EC0212F11230CF04AC0D50163
S1130360C401880F991FAA1FBB1F880F991FAA1FBA
S1130370BB1F880F991FAA1FBB1F481A590A6A0A74
S11303807B0A1E3FECF46DEF7FEF611B710917FDD3
S1130390739504C0440C551C661C771C6A95D2F7EF
S11303A0D501C401B695A79597958795BC01CD0154
S11303B0640D751D861D971DA5019401B3D134C02C
S11303C023E0210FD501C40104C0880F991FAA1F7F
S11303D0BB1F2A95D2F79C01AD01B695A7959795B9
S11303E08795BC01CD01640D751D861D971D9AD19D
S11303F01BC02D5FD501C40104C0880F991FAA1F1B
S1130400BB1F2A95D2F79C01AD01B695A795979588
S11304108795BC01CD01640D751D861D971D82D184
S11304202150310941095109832F8F701295107F92
S1130430182B1F832E8381E018C080E016C080E053
S113044014C0D501C401880F991FAA1FBB1F880FB0
S1130450991FAA1FBB1F880F991FAA1FBB1F481AE9
S1130460590A6A0A7B0A19EF8ECFDF91CF911F9147
S11304700F91FF90EF90DF90CF90BF90AF909F903F
S11304808F907F906F905F904F9008950F931F937C
S1130490CF93DF93EC018B01009709F4BEC0803C3D
S11304A0910521F460E180E0CBDEB7C0C11584E0A2
S11304B0D80721F464E080E0C3DEAFC0C038E1E0D7
S11304C0DE0721F462E080E0BBDEA7C0C115F1E0E5
S11304D0DF0721F461E080E0B3DE9FC0C03883E031
S11304E0D80721F461E081E0ABDE97C0C115E2E0FA
S11304F0DE0721F462E081E0A3DE8FC0C032F3E0C6
S1130500DF0721F464E082E09BDE87C0C11588E048
S1130510D80721F461E083E093DE7FC0C115E9E0F0
S1130520DE0721F461E084E08BDE77C0C115FAE0D8
S1130530DF0721F461E085E083DE6FC0C03488E02A
S1130540D80721F462E083E07BDE67C0C034E9E0D1
S1130550DE0721F462E084E073DE5FC0C039F8E0B6
S1130560DF0721F464E083E06BDE57C0C03989E023
S1130570D80721F464E084E063DE4FC0C039EAE0C8
S1130580DE0721F464E085E05BDE47C0C03CF8E0B0
S1130590DF0721F468E083E053DE3FC0C03C89E01C
S11305A0D80721F468E084E04BDE37C0C03AE8E0C5
S11305B0DE0721F460E183E043DE2FC0C03AF9E0B6
S11305C0DF0721F460E184E03BDE27C0C03A8AE023
S11305D0D80721F460E185E033DE1FC0C03BE8E0CA
S11305E0DE0721F460E283E02BDE17C0C03BF9E0B4
S11305F0DF0721F460E284E023DE0FC0C03884E02A
S1130600D80721F460E483E01BDE07C0C03AE4E0CD
S1130610DE0719F460E485E013DE8D818F738D832A
S1130620F80194818581892B9681992311F098E0B2
S113063001C090E0892B8D83F80140815181628152
S1130640738100E016E32EE631E0CE0119DE9C81D1
S113065098609C839C8190619C83DF91CF911F91D2
S11306600F9108951F920F920FB60F9211242F939A
S11306703F934F935F936F937F938F939F93AF9326
S1130680BF93EF93FF9380EA99E0F4DD682F80EA4B
S113069099E0E8DDE0EAF9E0818186FFFDCF80E4BE
S11306A0E0EAF9E08183FF91EF91BF91AF919F91CF
S11306B08F917F916F915F914F913F912F910F9007
S11306C00FBE0F901F90189581DD72DD87E0E0EA80
S11306D0F0E08283789460E184E0B2DD60E070E26F
S11306E080EA99E0D3DEE0EAF9E083818F7C8061DF
S11306F0838310923B2080E0C0EAD9E010E4E82F25
S1130700F0E0E95FFF4D6081CE01ACDD898186FFB9
S1130710FDCF198380913B208F5F80933B208333EF
S113072070F3FFCFA1E21A2EAA1BBB1BFD010DC063
S1130730AA1FBB1FEE1FFF1FA217B307E407F5078D
S113074020F0A21BB30BE40BF50B661F771F881F69
S1130750991F1A9469F760957095809590959B01FF
S10F0760AC01BD01CF010895F894FFCF57
S113076C80250000030000F2F5AB97968CDF969180
S113077CDF9E91DF9A919C909B9A9BDF929A8C8C32
S113078C9E989ADF8C9A918BDF998D9092DFA7B209
S10D079CBAB8BEDFAAACBEADABDEF6
S9030000FC
