S011000075736172745F7370692E7372656339
S1130000FDC0000016C1000014C1000012C10000B0
S113001010C100000EC100000CC100000AC10000A4
S113002008C1000006C1000004C1000002C10000B4
S113003000C10000FEC00000FCC00000FAC00000C7
S1130040F8C00000F6C00000F4C00000F2C00000D8
S1130050F0C00000EEC00000ECC00000EAC00000E8
S1130060E8C00000E6C00000E4C00000E2C00000F8
S1130070E0C00000DEC00000DCC00000DAC0000008
S1130080D8C00000D6C00000D4C00000D2C0000018
S1130090D0C00000CEC00000CCC00000CAC0000028
S11300A0C8C00000C6C00000C4C0000069C300008E
S11300B0C0C00000BEC00000BCC00000BAC0000048
S11300C0B8C00000B6C00000B4C00000B2C0000058
S11300D0B0C00000AEC00000ACC00000AAC0000068
S11300E0A8C00000A6C00000A4C00000A2C0000078
S11300F0A0C000009EC000009CC000009AC0000088
S113010098C0000096C0000094C0000092C0000097
S113011090C000008EC000008CC000008AC00000A7
S113012088C0000086C0000084C0000082C00000B7
S113013080C000007EC000007CC000007AC00000C7
S113014078C0000076C0000074C0000072C00000D7
S113015070C000006EC000006CC000006AC00000E7
S11301603BC3000066C0000064C000003FC3000041
S113017060C000005EC000005CC000005AC0000007
S113018058C0000056C0000054C0000052C0000017
S113019050C000004EC000004CC000004AC0000027
S11301A048C0000046C0000044C0000042C0000037
S11301B040C000003EC000003CC000003AC0000047
S11301C038C0000036C0000034C0000032C0000057
S11301D030C000002EC000002CC000002AC0000067
S11301E028C0000026C0000024C0000022C0000077
S11301F020C000001EC000001CC0000011241FBE4F
S1130200CFEFCDBFDFE2DEBF10E2A0E0B0E2E2E874
S1130210F8E002C005900D92AE30B107D9F720E2A4
S1130220AEE0B0E201C01D92AF30B207E1F746D2B2
S113023026C3E6CEFC01918195FFFDCF608380E06B
S113024090E00895FC0191819923ECF78081089551
S11302502F923F924F925F926F927F928F929F92D2
S1130260AF92BF92CF92DF92EF92FF920F931F93C0
S1130270CF931C012A013B0148015901D901C8014E
S1130280689412F8B695A795979587951694D1F723
S1130290B901A801032E36E17695679557954795E0
S11302A03A95D1F7302DF101248122FD08C0B6958D
S11302B0A79597958795769567955795479584154E
S11302C09505A605B70508F4AAC0441655066606A2
S11302D0770608F4A6C0F101848182FD04C0440CB1
S11302E0551C661C771CC501B401A3019201A5D25B
S11302F02F3F31054105510508F495C0C12CD12C7F
S11303007601CA94C9EF05C02C153D054E055F055D
S113031068F0CC0CDD1CEE1CFF1CCD3F14F468947B
S1130320C0F8CF5FC73081F78C2F54C08C2FCC23FB
S11303300CF050C0D301C201880F991FAA1FBB1F24
S1130340880F991FAA1FBB1F880F991FAA1FBB1FC5
S113035085017401E81AF90A0A0B1B0BD801C701BD
S1130360CE3FECF42DEF3FEF2C1B3109C7FD339545
S113037004C0880F991FAA1FBB1F2A95D2F77301C7
S11303806201F694E794D794C794BC01CD016C0D37
S11303907D1D8E1D9F1DA30192014FD236C023E007
S11303A02C0F8301720104C0EE0CFF1C001F111FEF
S11303B02A95D2F7A801970167017801F694E7948A
S11303C0D794C794BC01CD016C0D7D1D8E1D9F1D5E
S11303D034D21BC08D5FA301920104C0220F331FCE
S11303E0441F551F8A95D2F7DA01C901B695A7951E
S11303F097958795BC01CD01680D791D8A1D9B1DBC
S11304001CD22150310941095109832F8F70C295A3
S1130410C07FC82BF101C783268381E01CC080E024
S11304201AC080E018C0D301C201880F991FAA1F07
S1130430BB1F880F991FAA1FBB1F880F991FAA1FD4
S1130440BB1F85017401E81AF90A0A0B1B0BD801BA
S1130450C701C9EF87CFCF911F910F91FF90EF9004
S1130460DF90CF90BF90AF909F908F907F906F90D0
S11304705F904F903F902F9008950F931F93CF93C9
S1130480DF93EC018B01009709F4BEC0803C910519
S113049021F460E180E0FFD0B7C0C11584E0D80743
S11304A021F464E080E0F7D0AFC0C038E1E0DE07BB
S11304B021F462E080E0EFD0A7C0C115F1E0DF07CE
S11304C021F461E080E0E7D09FC0C03883E0D80722
S11304D021F461E081E0DFD097C0C115E2E0DE07DE
S11304E021F462E081E0D7D08FC0C032F3E0DF07AF
S11304F021F464E082E0CFD087C0C11588E0D8073A
S113050021F461E083E0C7D07FC0C115E9E0DE07D4
S113051021F461E084E0BFD077C0C115FAE0DF07C1
S113052021F461E085E0B7D06FC0C03488E0D8071B
S113053021F462E083E0AFD067C0C034E9E0DE07B5
S113054021F462E084E0A7D05FC0C039F8E0DF079F
S113055021F464E083E09FD057C0C03989E0D80714
S113056021F464E084E097D04FC0C039EAE0DE07AC
S113057021F464E085E08FD047C0C03CF8E0DF0799
S113058021F468E083E087D03FC0C03C89E0D8070D
S113059021F468E084E07FD037C0C03AE8E0DE07A9
S11305A021F460E183E077D02FC0C03AF9E0DF079F
S11305B021F460E184E06FD027C0C03A8AE0D80714
S11305C021F460E185E067D01FC0C03BE8E0DE07AE
S11305D021F460E283E05FD017C0C03BF9E0DF079D
S11305E021F460E284E057D00FC0C03884E0D8071B
S11305F021F460E483E04FD007C0C03AE4E0DE07B2
S113060019F460E485E047D08D818F738D83F80100
S113061094818581892B9681911198E0892B8D8312
S1130620F801408151816281738100E018E428EE71
S113063031E0CE010DDE9C8198609C839C819061A9
S11306409C83DF91CF911F910F9108958FEF809339
S11306507000809371008093720080937300809384
S1130660740080937500809376008091510084FD1E
S11306700DC09FB7F894E0E5F0E080E185838081C8
S1130680806180839FBF818184FFFDCF64E080E42B
S113069090E00DC008959FB7F894E82FF0E0E0597A
S11306A0FF4F60958081682360839FBF08951BBEC0
S11306B0FC0128ED24BF608308950895C7DFFDDFA2
S11306C0C0E6D6E088E08D83898384E08E838A83C4
S11306D082E08983E0EEF7E08183858360E184E052
S11306E0DADF67E070E280EA99E0C7DEE0EAF9E089
S11306F085818F738064858383818F7C806183830C
S113070080E88D83898380E48E838A8380E28A8370
S113071060E070E280EB99E0B0DEE0EBF9E0858127
S11307208F738064858383818F7C80618383E0E819
S1130730F6E0108280898A61808B81E082878187DC
S1130740E0E0F6E08FEF80831482E0E2F6E01082CE
S113075088E1808B818B828B838B87E08093A200DE
S113076078942FEF87EA91E6215080409040E1F79A
S113077000C00000E0E0F6E080910E208483FCCF0E
S11307801F920F920FB60F9211242F933F934F9302
S11307905F936F937F938F939F93AF93BF93EF93E5
S11307A0FF936091280680EA99E044DDE0EAF9E0ED
S11307B0818186FFFDCFFF91EF91BF91AF919F9112
S11307C08F917F916F915F914F913F912F910F90F6
S11307D00FBE0F901F9018951F920F920FB60F9295
S11307E011240F900FBE0F901F9018951F920F9217
S11307F00FB60F9211242F933F934F935F936F93F0
S11308007F938F939F93AF93BF93EF93FF9380EB6B
S113081099E018DD80930E20FF91EF91BF91AF9185
S11308209F918F917F916F915F914F913F912F9104
S11308300F900FBE0F901F901895A1E21A2EAA1BBD
S1130840BB1BFD010DC0AA1FBB1FEE1FFF1FA2177C
S1130850B307E407F50720F0A21BB30BE40BF50B79
S1130860661F771F881F991F1A9469F76095709502
S1130870809590959B01AC01BD01CF010895F8943A
S1050880FFCFA4
S11108820000000003000080841E000300003C
S9030000FC
