S00C0000646163322E73726563BE
S1130000BBC00000D4C00000D2C00000D0C00000BB
S1130010CEC00000CCC00000CAC00000C8C00000B0
S1130020C6C00000C4C00000C2C00000C0C00000C0
S1130030BEC00000BCC00000BBC00000E2C00000A5
S113004009C1000030C1000057C100007EC100009A
S1130050A5C10000CCC10000F3C100001AC2000019
S1130060A6C00000A4C00000A2C00000A0C0000000
S11300709EC000009CC000009AC0000098C0000010
S113008096C0000094C0000092C0000090C0000020
S11300908EC000008CC000008AC0000088C0000030
S11300A086C0000084C0000082C0000080C0000040
S11300B07EC000007CC000007AC00000ADC3000018
S11300C0D4C30000FBC3000022C4000049C40000E4
S11300D070C400006CC000006AC0000068C000006A
S11300E066C0000064C0000062C0000060C0000080
S11300F05EC000005CC000005AC0000058C0000090
S113010056C0000054C0000052C0000050C000009F
S11301104EC000004CC000004AC0000048C00000AF
S113012046C0000044C0000042C0000040C00000BF
S11301303EC00000D7C10000FEC1000025C200007F
S11301404CC2000073C200009AC20000C1C2000089
S1130150E8C200000FC3000036C3000028C000003E
S113016026C0000024C0000022C0000020C00000FF
S11301701EC000001CC0000011241FBECFEFCDBF65
S1130180DFE2DEBF10E2A0E0B0E2E0EBFDE002C09F
S113019005900D92A030B107D9F720E2A0E0B0E2BB
S11301A001C01D92AB33B207E1F77ED5FFC528CF5E
S11301B01F920F920FB60F9211242F933F934F93D8
S11301C05F936F937F938F939F93AF93BF93EF93BB
S11301D0FF93E0913220F0913320309709F0099594
S11301E0FF91EF91BF91AF919F918F917F916F910B
S11301F05F914F913F912F910F900FBE0F901F90E1
S113020018951F920F920FB60F9211242F933F93BC
S11302104F935F936F937F938F939F93AF93BF930A
S1130220EF93FF93E0913020F0913120309709F063
S11302300995FF91EF91BF91AF919F918F917F911C
S11302406F915F914F913F912F910F900FBE0F903F
S11302501F9018951F920F920FB60F9211242F938F
S11302603F934F935F936F937F938F939F93AF933A
S1130270BF93EF93FF93E0912E20F0912F203097BE
S113028009F00995FF91EF91BF91AF919F918F91E3
S11302907F916F915F914F913F912F910F900FBE7E
S11302A00F901F9018951F920F920FB60F92112462
S11302B02F933F934F935F936F937F938F939F936A
S11302C0AF93BF93EF93FF93E0912C20F0912D20F7
S11302D0309709F00995FF91EF91BF91AF919F91EC
S11302E08F917F916F915F914F913F912F910F90DB
S11302F00FBE0F901F9018951F920F920FB60F927A
S113030011242F933F934F935F936F937F938F9316
S11303109F93AF93BF93EF93FF93E0912A20F091C3
S11303202B20309709F00995FF91EF91BF91AF9180
S11303309F918F917F916F915F914F913F912F91F9
S11303400F900FBE0F901F9018951F920F920FB62B
S11303500F9211242F933F934F935F936F937F9347
S11303608F939F93AF93BF93EF93FF93E0912820D4
S1130370F0912920309709F00995FF91EF91BF91F1
S1130380AF919F918F917F916F915F914F913F9129
S11303902F910F900FBE0F901F9018951F920F92E0
S11303A00FB60F9211242F933F934F935F936F9344
S11303B07F938F939F93AF93BF93EF93FF93E091BA
S11303C02620F0912720309709F00995FF91EF91AD
S11303D0BF91AF919F918F917F916F915F914F9159
S11303E03F912F910F900FBE0F901F9018951F9261
S11303F00F920FB60F9211242F933F934F935F9355
S11304006F937F938F939F93AF93BF93EF93FF93D8
S1130410E0912420F0912520309709F00995FF916F
S1130420EF91BF91AF919F918F917F916F915F9168
S11304304F913F912F910F900FBE0F901F901895E1
S11304401F920F920FB60F9211242F933F934F9345
S11304505F936F937F938F939F93AF93BF93EF9328
S1130460FF93E0912220F0912320309709F0099521
S1130470FF91EF91BF91AF919F918F917F916F9178
S11304805F914F913F912F910F900FBE0F901F904E
S113049018951F920F920FB60F9211242F933F932A
S11304A04F935F936F937F938F939F93AF93BF9378
S11304B0EF93FF93E0912020F0912120309709F0F1
S11304C00995FF91EF91BF91AF919F918F917F918A
S11304D06F915F914F913F912F910F900FBE0F90AD
S11304E01F9018951F920F920FB60F9211242F93FD
S11304F03F934F935F936F937F938F939F93AF93A8
S1130500BF93EF93FF93E0911E20F0911F2030974B
S113051009F00995FF91EF91BF91AF919F918F9150
S11305207F916F915F914F913F912F910F900FBEEB
S11305300F901F9018951F920F920FB60F921124CF
S11305402F933F934F935F936F937F938F939F93D7
S1130550AF93BF93EF93FF93E0911C20F0911D2084
S1130560309709F00995FF91EF91BF91AF919F9159
S11305708F917F916F915F914F913F912F910F9048
S11305800FBE0F901F9018951F920F920FB60F92E7
S113059011242F933F934F935F936F937F938F9384
S11305A09F93AF93BF93EF93FF93E0911A20F09141
S11305B01B20309709F00995FF91EF91BF91AF91FE
S11305C09F918F917F916F915F914F913F912F9167
S11305D00F900FBE0F901F9018951F920F920FB699
S11305E00F9211242F933F934F935F936F937F93B5
S11305F08F939F93AF93BF93EF93FF93E091182052
S1130600F0911920309709F00995FF91EF91BF916E
S1130610AF919F918F917F916F915F914F913F9196
S11306202F910F900FBE0F901F9018951F920F924D
S11306300FB60F9211242F933F934F935F936F93B1
S11306407F938F939F93AF93BF93EF93FF93E09127
S11306501620F0911720309709F00995FF91EF913A
S1130660BF91AF919F918F917F916F915F914F91C6
S11306703F912F910F900FBE0F901F9018951F92CE
S11306800F920FB60F9211242F933F934F935F93C2
S11306906F937F938F939F93AF93BF93EF93FF9346
S11306A0E0911420F0911520309709F00995FF91FD
S11306B0EF91BF91AF919F918F917F916F915F91D6
S11306C04F913F912F910F900FBE0F901F9018954F
S11306D01F920F920FB60F9211242F933F934F93B3
S11306E05F936F937F938F939F93AF93BF93EF9396
S11306F0FF93E0911220F0911320309709F00995AF
S1130700FF91EF91BF91AF919F918F917F916F91E5
S11307105F914F913F912F910F900FBE0F901F90BB
S113072018951F920F920FB60F9211242F933F9397
S11307304F935F936F937F938F939F93AF93BF93E5
S1130740EF93FF93E0911020F0911120309709F07E
S11307500995FF91EF91BF91AF919F918F917F91F7
S11307606F915F914F913F912F910F900FBE0F901A
S11307701F9018951F920F920FB60F9211242F936A
S11307803F934F935F936F937F938F939F93AF9315
S1130790BF93EF93FF93E0910E20F0910F203097D9
S11307A009F00995FF91EF91BF91AF919F918F91BE
S11307B07F916F915F914F913F912F910F900FBE59
S11307C00F901F9018951F920F920FB60F9211243D
S11307D02F933F934F935F936F937F938F939F9345
S11307E0AF93BF93EF93FF93E0910C20F0910D2012
S11307F0309709F00995FF91EF91BF91AF919F91C7
S11308008F917F916F915F914F913F912F910F90B5
S11308100FBE0F901F9018951F920F920FB60F9254
S113082011242F933F934F935F936F937F938F93F1
S11308309F93AF93BF93EF93FF93E0910A20F091BE
S11308400B20309709F00995FF91EF91BF91AF917B
S11308509F918F917F916F915F914F913F912F91D4
S11308600F900FBE0F901F9018951F920F920FB606
S11308700F9211242F933F934F935F936F937F9322
S11308808F939F93AF93BF93EF93FF93E0910820CF
S1130890F0910920309709F00995FF91EF91BF91EC
S11308A0AF919F918F917F916F915F914F913F9104
S11308B02F910F900FBE0F901F9018951F920F92BB
S11308C00FB60F9211242F933F934F935F936F931F
S11308D07F938F939F93AF93BF93EF93FF93E09195
S11308E00620F0910720309709F00995FF91EF91C8
S11308F0BF91AF919F918F917F916F915F914F9134
S11309003F912F910F900FBE0F901F9018951F923B
S11309100F920FB60F9211242F933F934F935F932F
S11309206F937F938F939F93AF93BF93EF93FF93B3
S1130930E0910420F0910520309709F00995FF918A
S1130940EF91BF91AF919F918F917F916F915F9143
S11309504F913F912F910F900FBE0F901F901895BC
S11309601F920F920FB60F9211242F933F934F9320
S11309705F936F937F938F939F93AF93BF93EF9303
S1130980FF93E0910220F0910320309709F009953C
S1130990FF91EF91BF91AF919F918F917F916F9153
S11309A05F914F913F912F910F900FBE0F901F9029
S11309B018951F920F920FB60F9211242F933F9305
S11309C04F935F936F937F938F939F93AF93BF9353
S11309D0EF93FF93E0910020F0910120309709F00C
S11309E00995FF91EF91BF91AF919F918F917F9165
S11309F06F915F914F913F912F910F900FBE0F9088
S1130A001F901895CF93CFB7F894282F392F21151D
S1130A1088E0380739F461E083E060D064E083E083
S1130A205DD02DC0203488E0380739F462E083E0DB
S1130A3055D064E083E052D022C0211589E0380704
S1130A4039F461E084E04AD064E084E047D017C020
S1130A50203489E0380739F462E084E03FD064E070
S1130A6084E03CD00CC021153A4039F461E085E0C3
S1130A7035D064E085E032D002C0CFBF09C08FB763
S1130A80F894E6E3F0E290819F5F90838FBFCFBF3D
S1130A90CF9108958FEF80937000809371008093BD
S1130AA07200809373008093740080937500809328
S1130AB07600E0E5F0E0818184FD0BC08FB7F89407
S1130AC090E195839081906190838FBF818184FFB1
S1130AD0FDCF64E080E490E0ADC008959FB7F89442
S1130AE0E82FF0E0E059FF4F609580816823608330
S1130AF09FBF08959FB7F894E82FF0E0E059FF4FA7
S1130B008081682B60839FBF08958032934059F49D
S1130B108091342091E0980F90933420811103C088
S1130B2064E082E0DBCF08958032934051F48091F9
S1130B303420815080933420811103C064E082E02A
S1130B40D9CF08951F93CF93DF93EC011FB7F89487
S1130B508FB7F894E6E3F0E290819F5F90838FBFB4
S1130B60CE01D3DF8881816088831FBFDF91CF915D
S1130B701F910895DF92EF92FF920F931F93CF93EB
S1130B80DF93EC018B01C03283E0D80711F563E3F6
S1130B9070E082E045D0D82E62E370E082E040D07D
S1130BA0E82EFFB6F894CE01B0DF88811882F801F0
S1130BB09181998392819A8393819B8394819C836D
S1130BC0D886E98681709081892B8883CE01ACDF39
S1130BD0FFBEDF91CF911F910F91FF90EF90DF90B7
S1130BE00895FF920F931F93CF93DF93EC018B0132
S1130BF0FFB6F8948ADF88818E7FF801808389812B
S1130C0081838A8182838B8183838C818483CE01D7
S1130C108BDFFFBEDF91CF911F910F91FF9008955D
S1130C204091CA01E62FF72F8093CA018491409323
S1130C30CA0108951BBEFC0128ED24BF60830895FA
S1130C4008950F931F938B019C0100271127012BFB
S1130C50022B032B29F0BC0188279927E0E001C06F
S1130C60E0E19B01AB014427452B21F0272F3327DB
S1130C7040E001C048E0822F922F907F21F08295BE
S1130C808F7090E001C094E0282F2C7019F08695A5
S1130C90869501C09E5F81FF9F5F8FE18E1B841B41
S1130CA0891B1F910F910895CF93DF93CDB7DEB7C2
S1130CB02597CDBFDEBFC4DFEDDE80E098E0A2DE85
S1130CC0E0E0F8E08181887F81838FEF99EF86A34C
S1130CD097A38081807F81608083BE016F5F7F4F97
S1130CE080E293E07EDF88E08B838CE089838A81D5
S1130CF08F7980648A8365ED70E080E090E0A1DF05
S1130D00873018F48295807F01C080E71D811F78A9
S1130D10182B60E872E080E090E093DF843020F0EC
S1130D20813120F4845003C080E001C08CE0107F46
S1130D30812B8D83BE016F5F7F4F80E293E01ADFCA
S1130D4080E293E0FFDEE0E0F8E040E253E02AE9ED
S1130D5031E00AE313E086E69EE0648560FFFDCFA0
S1130D606485616064876FB7F894DA0158962D93AF
S1130D703C9359976FBF6FB7F894D8018D939C93A8
S1130D806FBF648560FFFDCF6485616064876FB762
S1130D90F894DA0158968D939C9359976FBF6FB767
S1130DA0F894D8012D933C936FBFD7CFF894FFCF1D
S9030000FC
